{
  "_format": "hh-sol-artifact-1",
  "contractName": "YourContract",
  "sourceName": "contracts/YourContract.sol",
  "abi": [
    {
      "inputs": [],
      "stateMutability": "nonpayable",
      "type": "constructor"
    },
    {
      "anonymous": false,
      "inputs": [
        {
          "indexed": false,
          "internalType": "address",
          "name": "sender",
          "type": "address"
        },
        {
          "indexed": false,
          "internalType": "string",
          "name": "purpose",
          "type": "string"
        }
      ],
      "name": "SetPurpose",
      "type": "event"
    },
    {
      "inputs": [],
      "name": "owner",
      "outputs": [
        {
          "internalType": "address",
          "name": "",
          "type": "address"
        }
      ],
      "stateMutability": "view",
      "type": "function"
    },
    {
      "inputs": [],
      "name": "purpose",
      "outputs": [
        {
          "internalType": "string",
          "name": "",
          "type": "string"
        }
      ],
      "stateMutability": "view",
      "type": "function"
    },
    {
      "inputs": [
        {
          "internalType": "string",
          "name": "newPurpose",
          "type": "string"
        }
      ],
      "name": "setPurpose",
      "outputs": [],
      "stateMutability": "nonpayable",
      "type": "function"
    }
  ],
  "bytecode": "0x60c0604052601960808190527f4275696c64696e6720556e73746f707061626c6520417070730000000000000060a090815261003e9160009190610077565b50600180546001600160a01b03191673e5050ec33578cb72554b696e6721369b660f3c7217905534801561007157600080fd5b50610118565b828054600181600116156101000203166002900490600052602060002090601f0160209004810192826100ad57600085556100f3565b82601f106100c657805160ff19168380011785556100f3565b828001600101855582156100f3579182015b828111156100f35782518255916020019190600101906100d8565b506100ff929150610103565b5090565b5b808211156100ff5760008155600101610104565b6105d2806101276000396000f3fe608060405234801561001057600080fd5b50600436106100415760003560e01c806370740aab146100465780638da5cb5b146100c3578063eb68757f146100e7575b600080fd5b61004e61018f565b6040805160208082528351818301528351919283929083019185019080838360005b83811015610088578181015183820152602001610070565b50505050905090810190601f1680156100b55780820380516001836020036101000a031916815260200191505b509250505060405180910390f35b6100cb61021d565b604080516001600160a01b039092168252519081900360200190f35b61018d600480360360208110156100fd57600080fd5b81019060208101813564010000000081111561011857600080fd5b82018360208201111561012a57600080fd5b8035906020019184600183028401116401000000008311171561014c57600080fd5b91908080601f01602080910402602001604051908101604052809392919081815260200183838082843760009201919091525092955061022c945050505050565b005b6000805460408051602060026001851615610100026000190190941693909304601f810184900484028201840190925281815292918301828280156102155780601f106101ea57610100808354040283529160200191610215565b820191906000526020600020905b8154815290600101906020018083116101f857829003601f168201915b505050505081565b6001546001600160a01b031681565b805161023f9060009060208401906104fb565b50604080518082018252600e81526d73657420707572706f736520746f60901b60208083019190915260008054845160026001831615610100026000190190921691909104601f81018490048402820184019095528481526102fc943394939192918301828280156102f25780601f106102c7576101008083540402835291602001916102f2565b820191906000526020600020905b8154815290600101906020018083116102d557829003601f168201915b50505050506103b7565b60408051338082526020820183815260008054600260001961010060018416150201909116049484018590527f6ea5d6383a120235c7728a9a6751672a8ac068e4ed34dcca2ee444182c1812de94929390929091906060830190849080156103a55780601f1061037a576101008083540402835291602001916103a5565b820191906000526020600020905b81548152906001019060200180831161038857829003601f168201915b5050935050505060405180910390a150565b6104d583838360405160240180846001600160a01b031681526020018060200180602001838103835285818151815260200191508051906020019080838360005b838110156104105781810151838201526020016103f8565b50505050905090810190601f16801561043d5780820380516001836020036101000a031916815260200191505b50838103825284518152845160209182019186019080838360005b83811015610470578181015183820152602001610458565b50505050905090810190601f16801561049d5780820380516001836020036101000a031916815260200191505b5060408051601f198184030181529190526020810180516001600160e01b031663fb77226560e01b17905295506104da945050505050565b505050565b80516a636f6e736f6c652e6c6f67602083016000808483855afa5050505050565b828054600181600116156101000203166002900490600052602060002090601f0160209004810192826105315760008555610577565b82601f1061054a57805160ff1916838001178555610577565b82800160010185558215610577579182015b8281111561057757825182559160200191906001019061055c565b50610583929150610587565b5090565b5b80821115610583576000815560010161058856fea2646970667358221220096f61455cf4ccdbe152531bf2993935e196b194f0707fa4b21f01ed3c4e435564736f6c63430007060033",
  "linkReferences": {},
  "deployedLinkReferences": {}
}