{"address":"0x61523Ec3bAf557623ce58E3A29A27A9b9733d481","bytecode":"0x60806040523480156200001157600080fd5b5060405162000e7e38038062000e7e833981016040819052620000349162000288565b6000620000496001600160e01b036200013a16565b600080546001600160a01b0319166001600160a01b0383169081178255604051929350917f8be0079c531659141344cd1fd0a4f28419497f9722a3daafe3b4186f6b6457e0908290a350600184905560028390558151620000b29060039060208501906200013f565b508051620000c89060049060208401906200013f565b5050600780546001600160a01b0319908116739326bfa02add2366b30bacb125260af64103133117909155600880548216733af8c569ab77af5230596acf0e8c2f9351d24c38179055600980549091167317756515f112429471f86f98d5052acb6c47f6ee1790555062000303915050565b335b90565b828054600181600116156101000203166002900490600052602060002090601f016020900481019282601f106200018257805160ff1916838001178555620001b2565b82800160010185558215620001b2579182015b82811115620001b257825182559160200191906001019062000195565b50620001c0929150620001c4565b5090565b6200013c91905b80821115620001c05760008155600101620001cb565b600082601f830112620001f2578081fd5b81516001600160401b038082111562000209578283fd5b6040516020601f8401601f19168201810183811183821017156200022b578586fd5b806040525081945083825286818588010111156200024857600080fd5b600092505b838310156200026c57858301810151828401820152918201916200024d565b838311156200027e5760008185840101525b5050505092915050565b600080600080608085870312156200029e578384fd5b84516020860151604087015191955093506001600160401b0380821115620002c4578384fd5b620002d288838901620001e1565b93506060870151915080821115620002e8578283fd5b50620002f787828801620001e1565b91505092959194509250565b610b6b80620003136000396000f3fe608060405234801561001057600080fd5b506004361061010b5760003560e01c8063a1ff401f116100a2578063b095c1bb11610071578063b095c1bb146101b8578063c4abddee146101c0578063dfb9ef4d146101d3578063eb68757f146101e6578063f2fde38b146101f95761010b565b8063a1ff401f1461018d578063aa8c217c14610195578063acc5e7821461019d578063b002249d146101b05761010b565b806370740aab116100de57806370740aab14610160578063715018a6146101755780638da5cb5b1461017d5780639c66d1ec146101855761010b565b8063123119cd146101105780631917ab5c1461012e57806350346dc6146101435780636619aa8614610158575b600080fd5b61011861020c565b6040516101259190610998565b60405180910390f35b61014161013c3660046108ac565b61021b565b005b61014b61026c565b6040516101259190610a46565b61014b61030b565b6101686103ae565b6040516101259190610a4f565b61014161043c565b6101186104c4565b61014b6104d3565b61014b61052a565b61014b610530565b6101416101ab3660046108ac565b610536565b610168610582565b6101686105dd565b6101416101ce366004610894565b610638565b6101416101e1366004610894565b610672565b6101416101f43660046108ac565b6106ac565b610141610207366004610866565b6106f4565b6005546001600160a01b031681565b805161022e9060069060208401906107ae565b507f79e6e700d65183b2eea70aa0cc25aa0852c71dd6fc43912af9318814aa8373723360066040516102619291906109ac565b60405180910390a150565b600080600080600080600960009054906101000a90046001600160a01b03166001600160a01b031663feaf968c6040518163ffffffff1660e01b815260040160a06040518083038186803b1580156102c357600080fd5b505afa1580156102d7573d6000803e3d6000fd5b505050506040513d601f19601f820116820180604052508101906102fb9190610947565b5091985050505050505050505b90565b600080600080600080600760009054906101000a90046001600160a01b03166001600160a01b031663feaf968c6040518163ffffffff1660e01b815260040160a06040518083038186803b15801561036257600080fd5b505afa158015610376573d6000803e3d6000fd5b505050506040513d601f19601f8201168201806040525081019061039a9190610947565b505060015490910297505050505050505090565b6004805460408051602060026001851615610100026000190190941693909304601f810184900484028201840190925281815292918301828280156104345780601f1061040957610100808354040283529160200191610434565b820191906000526020600020905b81548152906001019060200180831161041757829003601f168201915b505050505081565b6104446107aa565b6000546001600160a01b0390811691161461047a5760405162461bcd60e51b815260040161047190610ae8565b60405180910390fd5b600080546040516001600160a01b03909116907f8be0079c531659141344cd1fd0a4f28419497f9722a3daafe3b4186f6b6457e0908390a3600080546001600160a01b0319169055565b6000546001600160a01b031690565b600080600080600080600860009054906101000a90046001600160a01b03166001600160a01b031663feaf968c6040518163ffffffff1660e01b815260040160a06040518083038186803b1580156102c357600080fd5b60025481565b60015481565b61053e6107aa565b6000546001600160a01b0390811691161461056b5760405162461bcd60e51b815260040161047190610ae8565b805161057e9060039060208401906107ae565b5050565b6003805460408051602060026001851615610100026000190190941693909304601f810184900484028201840190925281815292918301828280156104345780601f1061040957610100808354040283529160200191610434565b6006805460408051602060026001851615610100026000190190941693909304601f810184900484028201840190925281815292918301828280156104345780601f1061040957610100808354040283529160200191610434565b6106406107aa565b6000546001600160a01b0390811691161461066d5760405162461bcd60e51b815260040161047190610ae8565b600255565b61067a6107aa565b6000546001600160a01b039081169116146106a75760405162461bcd60e51b815260040161047190610ae8565b600155565b6106b46107aa565b6000546001600160a01b039081169116146106e15760405162461bcd60e51b815260040161047190610ae8565b805161057e9060049060208401906107ae565b6106fc6107aa565b6000546001600160a01b039081169116146107295760405162461bcd60e51b815260040161047190610ae8565b6001600160a01b03811661074f5760405162461bcd60e51b815260040161047190610aa2565b600080546040516001600160a01b03808516939216917f8be0079c531659141344cd1fd0a4f28419497f9722a3daafe3b4186f6b6457e091a3600080546001600160a01b0319166001600160a01b0392909216919091179055565b3390565b828054600181600116156101000203166002900490600052602060002090601f016020900481019282601f106107ef57805160ff191683800117855561081c565b8280016001018555821561081c579182015b8281111561081c578251825591602001919060010190610801565b5061082892915061082c565b5090565b61030891905b808211156108285760008155600101610832565b805169ffffffffffffffffffff8116811461086057600080fd5b92915050565b600060208284031215610877578081fd5b81356001600160a01b038116811461088d578182fd5b9392505050565b6000602082840312156108a5578081fd5b5035919050565b6000602082840312156108bd578081fd5b813567ffffffffffffffff808211156108d4578283fd5b81840185601f8201126108e5578384fd5b80359250818311156108f5578384fd5b604051601f8401601f191681016020018381118282101715610915578586fd5b60405283815281840160200187101561092c578485fd5b61093d846020830160208501610b29565b9695505050505050565b600080600080600060a0868803121561095e578081fd5b6109688787610846565b945060208601519350604086015192506060860151915061098c8760808801610846565b90509295509295909350565b6001600160a01b0391909116815260200190565b60006040820160018060a01b038516835260206040818501528285546001808216600081146109e25760018114610a0057610a38565b60028304607f16865260ff1983166060890152608088019350610a38565b60028304808752610a108a610b1d565b885b82811015610a2e5781548b820160600152908401908701610a12565b8a01606001955050505b509198975050505050505050565b90815260200190565b6000602080835283518082850152825b81811015610a7b57858101830151858201604001528201610a5f565b81811115610a8c5783604083870101525b50601f01601f1916929092016040019392505050565b60208082526026908201527f4f776e61626c653a206e6577206f776e657220697320746865207a65726f206160408201526564647265737360d01b606082015260800190565b6020808252818101527f4f776e61626c653a2063616c6c6572206973206e6f7420746865206f776e6572604082015260600190565b60009081526020902090565b8281833750600091015256fea26469706673582212204d02fbfd5b71f6b0b29b8938b4546569d17f97a451a9eb2c31d79777e5d953a364736f6c63430006070033","abi":[{"inputs":[{"internalType":"int256","name":"_amount","type":"int256"},{"internalType":"int256","name":"_maxResolutionTime","type":"int256"},{"internalType":"string","name":"_supportedTokens","type":"string"},{"internalType":"string","name":"_purpose","type":"string"}],"stateMutability":"nonpayable","type":"constructor"},{"anonymous":false,"inputs":[{"indexed":true,"internalType":"address","name":"previousOwner","type":"address"},{"indexed":true,"internalType":"address","name":"newOwner","type":"address"}],"name":"OwnershipTransferred","type":"event"},{"anonymous":false,"inputs":[{"indexed":false,"internalType":"address","name":"sender","type":"address"},{"indexed":false,"internalType":"string","name":"selectedToken","type":"string"}],"name":"PaymentActivated","type":"event"},{"inputs":[{"internalType":"string","name":"_selectedToken","type":"string"}],"name":"activate","outputs":[],"stateMutability":"nonpayable","type":"function"},{"inputs":[],"name":"amount","outputs":[{"internalType":"int256","name":"","type":"int256"}],"stateMutability":"view","type":"function"},{"inputs":[],"name":"linkToEth","outputs":[{"internalType":"int256","name":"","type":"int256"}],"stateMutability":"view","type":"function"},{"inputs":[],"name":"maxResolutionTime","outputs":[{"internalType":"int256","name":"","type":"int256"}],"stateMutability":"view","type":"function"},{"inputs":[],"name":"owner","outputs":[{"internalType":"address","name":"","type":"address"}],"stateMutability":"view","type":"function"},{"inputs":[],"name":"payer","outputs":[{"internalType":"address","name":"","type":"address"}],"stateMutability":"view","type":"function"},{"inputs":[],"name":"purpose","outputs":[{"internalType":"string","name":"","type":"string"}],"stateMutability":"view","type":"function"},{"inputs":[],"name":"renounceOwnership","outputs":[],"stateMutability":"nonpayable","type":"function"},{"inputs":[],"name":"selectedToken","outputs":[{"internalType":"string","name":"","type":"string"}],"stateMutability":"view","type":"function"},{"inputs":[{"internalType":"int256","name":"_amount","type":"int256"}],"name":"setAmount","outputs":[],"stateMutability":"nonpayable","type":"function"},{"inputs":[{"internalType":"int256","name":"_maxResolutionTime","type":"int256"}],"name":"setMaxResolutionTime","outputs":[],"stateMutability":"nonpayable","type":"function"},{"inputs":[{"internalType":"string","name":"_purpose","type":"string"}],"name":"setPurpose","outputs":[],"stateMutability":"nonpayable","type":"function"},{"inputs":[{"internalType":"string","name":"_supportedTokens","type":"string"}],"name":"setSupportedTokens","outputs":[],"stateMutability":"nonpayable","type":"function"},{"inputs":[],"name":"supportedTokens","outputs":[{"internalType":"string","name":"","type":"string"}],"stateMutability":"view","type":"function"},{"inputs":[{"internalType":"address","name":"newOwner","type":"address"}],"name":"transferOwnership","outputs":[],"stateMutability":"nonpayable","type":"function"},{"inputs":[],"name":"uniToEth","outputs":[{"internalType":"int256","name":"","type":"int256"}],"stateMutability":"view","type":"function"},{"inputs":[],"name":"usdPrice","outputs":[{"internalType":"int256","name":"","type":"int256"}],"stateMutability":"view","type":"function"}]}