{"address":"0xB2f1295da271312Bed4ffa86d79C1C46eB3c9BE7","bytecode":"0x60806040526000808055600155600380546001600160a01b03191673e5050ec33578cb72554b696e6721369b660f3c7217905534801561003e57600080fd5b506106bf8061004e6000396000f3fe608060405234801561001057600080fd5b506004361061007d5760003560e01c8063a035b1fe1161005b578063a035b1fe146100c8578063a1ff401f146100dd578063c6255626146100e5578063d6e008d4146101055761007d565b80638da5cb5b1461008257806391b7f5ed146100a0578063941a0fce146100b5575b600080fd5b61008a610118565b60405161009791906104f5565b60405180910390f35b6100b36100ae3660046104dd565b610127565b005b6100b36100c33660046104dd565b610169565b6100d06101a0565b6040516100979190610650565b6100d06101a6565b6100f86100f33660046104dd565b6101ac565b60405161009791906105fd565b6100b36101133660046103f9565b610255565b6003546001600160a01b031681565b60008190556040517f95dce27040c59c8b1c445b284f81a3aaae6eecd7d08d5c7684faee64cdb514a19061015e90339084906105e4565b60405180910390a150565b60018190556040517f4ffab8f1e3e58b989ec4e200f77c91ef3f41f464269763b3866a73732a60c51a9061015e90339084906105e4565b60005481565b60015481565b600281815481106101bc57600080fd5b600091825260209182902001805460408051601f600260001961010060018716150201909416939093049283018590048502810185019091528181529350909183018282801561024d5780601f106102225761010080835404028352916020019161024d565b820191906000526020600020905b81548152906001019060200180831161023057829003601f168201915b505050505081565b805161026890600290602084019061029b565b507f8cf7cedfcd6b5f9e5054d3d7e7e7e2f3ae562d7067e4310ca0e6a35d8bc834a533600260405161015e929190610509565b8280548282559060005260206000209081019282156102e8579160200282015b828111156102e857825180516102d89184916020909101906102f8565b50916020019190600101906102bb565b506102f4929150610380565b5090565b828054600181600116156101000203166002900490600052602060002090601f01602090048101928261032e5760008555610374565b82601f1061034757805160ff1916838001178555610374565b82800160010185558215610374579182015b82811115610374578251825591602001919060010190610359565b506102f492915061039d565b808211156102f457600061039482826103b2565b50600101610380565b5b808211156102f4576000815560010161039e565b50805460018160011615610100020316600290046000825580601f106103d857506103f6565b601f0160209004906000526020600020908101906103f6919061039d565b50565b6000602080838503121561040b578182fd5b823567ffffffffffffffff80821115610422578384fd5b8185019150601f8681840112610436578485fd5b82358281111561044257fe5b61044f8586830201610659565b81815285810190858701885b848110156104cd57813588018c603f820112610475578a8bfd5b8981013560408982111561048557fe5b610496828a01601f19168d01610659565b8281528f828486010111156104a9578d8efd5b828285018e8301379182018c018d905250855250928801929088019060010161045b565b50909a9950505050505050505050565b6000602082840312156104ee578081fd5b5035919050565b6001600160a01b0391909116815260200190565b6000604080830160018060a01b03861684526020828186015281865480845260608701915060608382028801019350878652828620865b828110156105d557888603605f19018452815488906001808216801561056d5760018114610589576105bf565b60028304607f168a5260ff198316898b01528a8a0193506105bf565b60028304808b526105998761067d565b8d5b828110156105b65781548d82018d0152908401908b0161059b565b8c018b01955050505b5091975050938501939190910190600101610540565b50939998505050505050505050565b6001600160a01b03929092168252602082015260400190565b6000602080835283518082850152825b818110156106295785810183015185820160400152820161060d565b8181111561063a5783604083870101525b50601f01601f1916929092016040019392505050565b90815260200190565b60405181810167ffffffffffffffff8111828210171561067557fe5b604052919050565b6000908152602090209056fea2646970667358221220b88365cab2693b4218258f7d2a6e48dbf2d8ce9ec410674f82833ea1eabf5e2f64736f6c63430007060033","abi":[{"inputs":[],"stateMutability":"nonpayable","type":"constructor"},{"anonymous":false,"inputs":[{"indexed":false,"internalType":"address","name":"sender","type":"address"},{"indexed":false,"internalType":"uint256","name":"maxResolutionTime","type":"uint256"}],"name":"SetMaxResolutionTime","type":"event"},{"anonymous":false,"inputs":[{"indexed":false,"internalType":"address","name":"sender","type":"address"},{"indexed":false,"internalType":"uint256","name":"price","type":"uint256"}],"name":"SetPrice","type":"event"},{"anonymous":false,"inputs":[{"indexed":false,"internalType":"address","name":"sender","type":"address"},{"indexed":false,"internalType":"string[]","name":"supportedTokens","type":"string[]"}],"name":"SetSupportedTokens","type":"event"},{"inputs":[],"name":"maxResolutionTime","outputs":[{"internalType":"uint256","name":"","type":"uint256"}],"stateMutability":"view","type":"function"},{"inputs":[],"name":"owner","outputs":[{"internalType":"address","name":"","type":"address"}],"stateMutability":"view","type":"function"},{"inputs":[],"name":"price","outputs":[{"internalType":"uint256","name":"","type":"uint256"}],"stateMutability":"view","type":"function"},{"inputs":[{"internalType":"uint256","name":"_maxResolutionTime","type":"uint256"}],"name":"setMaxResolutionTime","outputs":[],"stateMutability":"nonpayable","type":"function"},{"inputs":[{"internalType":"uint256","name":"_price","type":"uint256"}],"name":"setPrice","outputs":[],"stateMutability":"nonpayable","type":"function"},{"inputs":[{"internalType":"string[]","name":"_supportedTokens","type":"string[]"}],"name":"setSupportedTokens","outputs":[],"stateMutability":"nonpayable","type":"function"},{"inputs":[{"internalType":"uint256","name":"","type":"uint256"}],"name":"supportedTokens","outputs":[{"internalType":"string","name":"","type":"string"}],"stateMutability":"view","type":"function"}]}