{"address":"0x0CF3daB52037915E39Ec22783d72F27847371086","bytecode":"0x60806040526002600a553480156200001657600080fd5b5060405162001a8938038062001a898339810160408190526200003991620002c6565b8060006200004f6001600160e01b036200017816565b600080546001600160a01b0319166001600160a01b0383169081178255604051929350917f8be0079c531659141344cd1fd0a4f28419497f9722a3daafe3b4186f6b6457e0908290a350600180546001600160a01b0319166001600160a01b0392909216919091179055600286905560038590558351620000d89060059060208701906200017d565b508251620000ee9060069060208601906200017d565b508151620001049060049060208501906200017d565b5050600b80546001600160a01b0319908116739326bfa02add2366b30bacb125260af64103133117909155600c80548216733af8c569ab77af5230596acf0e8c2f9351d24c38179055600d80549091167317756515f112429471f86f98d5052acb6c47f6ee17905550620003899350505050565b335b90565b828054600181600116156101000203166002900490600052602060002090601f016020900481019282601f10620001c057805160ff1916838001178555620001f0565b82800160010185558215620001f0579182015b82811115620001f0578251825591602001919060010190620001d3565b50620001fe92915062000202565b5090565b6200017a91905b80821115620001fe576000815560010162000209565b600082601f83011262000230578081fd5b81516001600160401b038082111562000247578283fd5b6040516020601f8401601f191682018101838111838210171562000269578586fd5b806040525081945083825286818588010111156200028657600080fd5b600092505b83831015620002aa57858301810151828401820152918201916200028b565b83831115620002bc5760008185840101525b5050505092915050565b60008060008060008060c08789031215620002df578182fd5b86516020880151604089015191975095506001600160401b038082111562000305578384fd5b620003138a838b016200021f565b9550606089015191508082111562000329578384fd5b620003378a838b016200021f565b945060808901519150808211156200034d578384fd5b506200035c89828a016200021f565b60a089015190935090506001600160a01b03811681146200037b578182fd5b809150509295509295509295565b6116f080620003996000396000f3fe608060405234801561001057600080fd5b50600436106101a95760003560e01c80638da5cb5b116100f9578063b002249d11610097578063c4abddee11610071578063c4abddee14610330578063dfb9ef4d14610343578063eb68757f14610356578063f2fde38b14610369576101a9565b8063b002249d146102ff578063b095c1bb14610307578063b73e49791461030f576101a9565b80639c66d1ec116100d35780639c66d1ec146102d4578063a1ff401f146102dc578063aa8c217c146102e4578063acc5e782146102ec576101a9565b80638da5cb5b146102a657806393fa4915146102ae578063978a0cfe146102c1576101a9565b806346eee1c41161016657806366b446111161014057806366b446111461027057806370740aab14610283578063715018a61461028b57806377fbb66314610293576101a9565b806346eee1c41461024057806350346dc6146102605780636619aa8614610268576101a9565b8063123119cd146101ae57806317948fde146101cc5780631917ab5c146101d65780632763b8da146101e95780633df0777b146101fe5780633fcad9641461021e575b600080fd5b6101b661037c565b6040516101c391906114dc565b60405180910390f35b6101d461038b565b005b6101d46101e43660046113b7565b6103a5565b6101f16103f6565b6040516101c391906115c6565b61021161020c36600461146a565b610484565b6040516101c3919061158a565b61023161022c36600461139f565b610510565b6040516101c3939291906115a5565b61025361024e36600461139f565b6106d7565b6040516101c391906115bd565b610253610758565b6102536107f7565b61023161027e36600461146a565b61089a565b6101f16109f8565b6101d4610a53565b6102536102a136600461146a565b610adb565b6101b6610b5e565b6102536102bc36600461146a565b610b6d565b6101d46102cf3660046113b7565b610ba0565b610253610bec565b610253610c43565b610253610c49565b6101d46102fa3660046113b7565b610c4f565b6101f1610c97565b6101f1610cf2565b61032261031d36600461146a565b610d4d565b6040516101c3929190611595565b6101d461033e36600461139f565b611129565b6101d461035136600461139f565b611163565b6101d46103643660046113b7565b61119d565b6101d4610377366004611351565b6111e5565b6007546001600160a01b031681565b600080600061039b600a54610510565b5060095550505050565b80516103b890600890602084019061129f565b507f79e6e700d65183b2eea70aa0cc25aa0852c71dd6fc43912af9318814aa8373723360086040516103eb9291906114f0565b60405180910390a150565b6004805460408051602060026001851615610100026000190190941693909304601f8101849004840282018401909252818152929183018282801561047c5780601f106104515761010080835404028352916020019161047c565b820191906000526020600020905b81548152906001019060200180831161045f57829003601f168201915b505050505081565b600154604051633df0777b60e01b81526000916001600160a01b031690633df0777b906104b79086908690600401611694565b60206040518083038186803b1580156104cf57600080fd5b505afa1580156104e3573d6000803e3d6000fd5b505050506040513d601f19601f82011682018060405250810190610507919061137f565b90505b92915050565b6001546040516311bbb87160e21b81526000918291829182916001600160a01b03909116906346eee1c4906105499088906004016115bd565b60206040518083038186803b15801561056157600080fd5b505afa158015610575573d6000803e3d6000fd5b505050506040513d601f19601f820116820180604052508101906105999190611452565b6001546040516377fbb66360e01b81529192506000916001600160a01b03909116906377fbb663906105d5908990600019870190600401611694565b60206040518083038186803b1580156105ed57600080fd5b505afa158015610601573d6000803e3d6000fd5b505050506040513d601f19601f820116820180604052508101906106259190611452565b6001546040516393fa491560e01b81529192506000916001600160a01b03909116906393fa49159061065d908a908690600401611694565b60206040518083038186803b15801561067557600080fd5b505afa158015610689573d6000803e3d6000fd5b505050506040513d601f19601f820116820180604052508101906106ad9190611452565b905080156106c45760019550935091506106d09050565b50600094508493509150505b9193909250565b6001546040516311bbb87160e21b81526000916001600160a01b0316906346eee1c4906107089085906004016115bd565b60206040518083038186803b15801561072057600080fd5b505afa158015610734573d6000803e3d6000fd5b505050506040513d601f19601f8201168201806040525081019061050a9190611452565b600080600080600080600d60009054906101000a90046001600160a01b03166001600160a01b031663feaf968c6040518163ffffffff1660e01b815260040160a06040518083038186803b1580156107af57600080fd5b505afa1580156107c3573d6000803e3d6000fd5b505050506040513d601f19601f820116820180604052508101906107e7919061148b565b5091985050505050505050505b90565b600080600080600080600b60009054906101000a90046001600160a01b03166001600160a01b031663feaf968c6040518163ffffffff1660e01b815260040160a06040518083038186803b15801561084e57600080fd5b505afa158015610862573d6000803e3d6000fd5b505050506040513d601f19601f82011682018060405250810190610886919061148b565b505060025490910297505050505050505090565b60008060008060006108ac8787610d4d565b91509150816108c75750600093508392508291506109f19050565b6001546040516377fbb66360e01b81526000916001600160a01b0316906377fbb663906108fa908b908690600401611694565b60206040518083038186803b15801561091257600080fd5b505afa158015610926573d6000803e3d6000fd5b505050506040513d601f19601f8201168201806040525081019061094a9190611452565b6001546040516393fa491560e01b81529192506001600160a01b0316906393fa49159061097d908b908590600401611694565b60206040518083038186803b15801561099557600080fd5b505afa1580156109a9573d6000803e3d6000fd5b505050506040513d601f19601f820116820180604052508101906109cd9190611452565b945084156109e3576001955092506109f1915050565b506000945084935083925050505b9250925092565b6006805460408051602060026001851615610100026000190190941693909304601f8101849004840282018401909252818152929183018282801561047c5780601f106104515761010080835404028352916020019161047c565b610a5b61129b565b6000546001600160a01b03908116911614610a915760405162461bcd60e51b8152600401610a889061165f565b60405180910390fd5b600080546040516001600160a01b03909116907f8be0079c531659141344cd1fd0a4f28419497f9722a3daafe3b4186f6b6457e0908390a3600080546001600160a01b0319169055565b6001546040516377fbb66360e01b81526000916001600160a01b0316906377fbb66390610b0e9086908690600401611694565b60206040518083038186803b158015610b2657600080fd5b505afa158015610b3a573d6000803e3d6000fd5b505050506040513d601f19601f820116820180604052508101906105079190611452565b6000546001600160a01b031690565b6001546040516393fa491560e01b81526000916001600160a01b0316906393fa491590610b0e9086908690600401611694565b610ba861129b565b6000546001600160a01b03908116911614610bd55760405162461bcd60e51b8152600401610a889061165f565b8051610be890600490602084019061129f565b5050565b600080600080600080600c60009054906101000a90046001600160a01b03166001600160a01b031663feaf968c6040518163ffffffff1660e01b815260040160a06040518083038186803b1580156107af57600080fd5b60035481565b60025481565b610c5761129b565b6000546001600160a01b03908116911614610c845760405162461bcd60e51b8152600401610a889061165f565b8051610be890600590602084019061129f565b6005805460408051602060026001851615610100026000190190941693909304601f8101849004840282018401909252818152929183018282801561047c5780601f106104515761010080835404028352916020019161047c565b6008805460408051602060026001851615610100026000190190941693909304601f8101849004840282018401909252818152929183018282801561047c5780601f106104515761010080835404028352916020019161047c565b6001546040516311bbb87160e21b8152600091829182916001600160a01b0316906346eee1c490610d829088906004016115bd565b60206040518083038186803b158015610d9a57600080fd5b505afa158015610dae573d6000803e3d6000fd5b505050506040513d601f19601f82011682018060405250810190610dd29190611452565b90508015611119576001546040516377fbb66360e01b8152600091829160001985019183916001600160a01b03909116906377fbb66390610e19908c908590600401611694565b60206040518083038186803b158015610e3157600080fd5b505afa158015610e45573d6000803e3d6000fd5b505050506040513d601f19601f82011682018060405250810190610e699190611452565b9050878110610e845750600095508594506111229350505050565b6001546040516377fbb66360e01b81526001600160a01b03909116906377fbb66390610eb6908c908690600401611694565b60206040518083038186803b158015610ece57600080fd5b505afa158015610ee2573d6000803e3d6000fd5b505050506040513d601f19601f82011682018060405250810190610f069190611452565b905087811015610f20575060019550935061112292505050565b600180546040516377fbb66360e01b8152600286860304860190920195506001600160a01b0316906377fbb66390610f5e908c908890600401611694565b60206040518083038186803b158015610f7657600080fd5b505afa158015610f8a573d6000803e3d6000fd5b505050506040513d601f19601f82011682018060405250810190610fae9190611452565b90508781101561106757600180546040516377fbb66360e01b81526000926001600160a01b03909216916377fbb66391610ff0918e91908a0190600401611694565b60206040518083038186803b15801561100857600080fd5b505afa15801561101c573d6000803e3d6000fd5b505050506040513d601f19601f820116820180604052508101906110409190611452565b905088811061105b5760018597509750505050505050611122565b84600101935050611114565b6001546040516377fbb66360e01b81526000916001600160a01b0316906377fbb6639061109e908d906000198a0190600401611694565b60206040518083038186803b1580156110b657600080fd5b505afa1580156110ca573d6000803e3d6000fd5b505050506040513d601f19601f820116820180604052508101906110ee9190611452565b90508881101561110c57600180860397509750505050505050611122565b600185039250505b610f20565b50600091508190505b9250929050565b61113161129b565b6000546001600160a01b0390811691161461115e5760405162461bcd60e51b8152600401610a889061165f565b600355565b61116b61129b565b6000546001600160a01b039081169116146111985760405162461bcd60e51b8152600401610a889061165f565b600255565b6111a561129b565b6000546001600160a01b039081169116146111d25760405162461bcd60e51b8152600401610a889061165f565b8051610be890600690602084019061129f565b6111ed61129b565b6000546001600160a01b0390811691161461121a5760405162461bcd60e51b8152600401610a889061165f565b6001600160a01b0381166112405760405162461bcd60e51b8152600401610a8890611619565b600080546040516001600160a01b03808516939216917f8be0079c531659141344cd1fd0a4f28419497f9722a3daafe3b4186f6b6457e091a3600080546001600160a01b0319166001600160a01b0392909216919091179055565b3390565b828054600181600116156101000203166002900490600052602060002090601f016020900481019282601f106112e057805160ff191683800117855561130d565b8280016001018555821561130d579182015b8281111561130d5782518255916020019190600101906112f2565b5061131992915061131d565b5090565b6107f491905b808211156113195760008155600101611323565b805169ffffffffffffffffffff8116811461050a57600080fd5b600060208284031215611362578081fd5b81356001600160a01b0381168114611378578182fd5b9392505050565b600060208284031215611390578081fd5b81518015158114611378578182fd5b6000602082840312156113b0578081fd5b5035919050565b6000602082840312156113c8578081fd5b813567ffffffffffffffff808211156113df578283fd5b81840185601f8201126113f0578384fd5b8035925081831115611400578384fd5b604051601f8401601f191681016020018381118282101715611420578586fd5b604052838152818401602001871015611437578485fd5b6114488460208301602085016116ae565b9695505050505050565b600060208284031215611463578081fd5b5051919050565b6000806040838503121561147c578081fd5b50508035926020909101359150565b600080600080600060a086880312156114a2578081fd5b6114ac8787611337565b94506020860151935060408601519250606086015191506114d08760808801611337565b90509295509295909350565b6001600160a01b0391909116815260200190565b60006040820160018060a01b0385168352602060408185015282855460018082166000811461152657600181146115445761157c565b60028304607f16865260ff198316606089015260808801935061157c565b600283048087526115548a6116a2565b885b828110156115725781548b820160600152908401908701611556565b8a01606001955050505b509198975050505050505050565b901515815260200190565b9115158252602082015260400190565b92151583526020830191909152604082015260600190565b90815260200190565b6000602080835283518082850152825b818110156115f2578581018301518582016040015282016115d6565b818111156116035783604083870101525b50601f01601f1916929092016040019392505050565b60208082526026908201527f4f776e61626c653a206e6577206f776e657220697320746865207a65726f206160408201526564647265737360d01b606082015260800190565b6020808252818101527f4f776e61626c653a2063616c6c6572206973206e6f7420746865206f776e6572604082015260600190565b918252602082015260400190565b60009081526020902090565b8281833750600091015256fea2646970667358221220ba26acef55f065fc7c176fdf3f490a5ba26a4b5e4339d8d2869b591433be164464736f6c63430006070033","abi":[{"inputs":[{"internalType":"int256","name":"_amount","type":"int256"},{"internalType":"int256","name":"_maxResolutionTime","type":"int256"},{"internalType":"string","name":"_supportedTokens","type":"string"},{"internalType":"string","name":"_purpose","type":"string"},{"internalType":"string","name":"_paymentType","type":"string"},{"internalType":"address payable","name":"_tellorAddress","type":"address"}],"stateMutability":"nonpayable","type":"constructor"},{"anonymous":false,"inputs":[{"indexed":true,"internalType":"address","name":"previousOwner","type":"address"},{"indexed":true,"internalType":"address","name":"newOwner","type":"address"}],"name":"OwnershipTransferred","type":"event"},{"anonymous":false,"inputs":[{"indexed":false,"internalType":"address","name":"sender","type":"address"},{"indexed":false,"internalType":"string","name":"selectedToken","type":"string"}],"name":"PaymentActivated","type":"event"},{"inputs":[{"internalType":"string","name":"_selectedToken","type":"string"}],"name":"activate","outputs":[],"stateMutability":"nonpayable","type":"function"},{"inputs":[],"name":"amount","outputs":[{"internalType":"int256","name":"","type":"int256"}],"stateMutability":"view","type":"function"},{"inputs":[{"internalType":"uint256","name":"_requestId","type":"uint256"}],"name":"getCurrentValue","outputs":[{"internalType":"bool","name":"ifRetrieve","type":"bool"},{"internalType":"uint256","name":"value","type":"uint256"},{"internalType":"uint256","name":"_timestampRetrieved","type":"uint256"}],"stateMutability":"view","type":"function"},{"inputs":[{"internalType":"uint256","name":"_requestId","type":"uint256"},{"internalType":"uint256","name":"_timestamp","type":"uint256"}],"name":"getDataBefore","outputs":[{"internalType":"bool","name":"_ifRetrieve","type":"bool"},{"internalType":"uint256","name":"_value","type":"uint256"},{"internalType":"uint256","name":"_timestampRetrieved","type":"uint256"}],"stateMutability":"view","type":"function"},{"inputs":[{"internalType":"uint256","name":"_requestId","type":"uint256"},{"internalType":"uint256","name":"_timestamp","type":"uint256"}],"name":"getIndexForDataBefore","outputs":[{"internalType":"bool","name":"found","type":"bool"},{"internalType":"uint256","name":"index","type":"uint256"}],"stateMutability":"view","type":"function"},{"inputs":[{"internalType":"uint256","name":"_requestId","type":"uint256"}],"name":"getNewValueCountbyRequestId","outputs":[{"internalType":"uint256","name":"","type":"uint256"}],"stateMutability":"view","type":"function"},{"inputs":[{"internalType":"uint256","name":"_requestId","type":"uint256"},{"internalType":"uint256","name":"_index","type":"uint256"}],"name":"getTimestampbyRequestIDandIndex","outputs":[{"internalType":"uint256","name":"","type":"uint256"}],"stateMutability":"view","type":"function"},{"inputs":[{"internalType":"uint256","name":"_requestId","type":"uint256"},{"internalType":"uint256","name":"_timestamp","type":"uint256"}],"name":"isInDispute","outputs":[{"internalType":"bool","name":"","type":"bool"}],"stateMutability":"view","type":"function"},{"inputs":[],"name":"linkToEth","outputs":[{"internalType":"int256","name":"","type":"int256"}],"stateMutability":"view","type":"function"},{"inputs":[],"name":"maxResolutionTime","outputs":[{"internalType":"int256","name":"","type":"int256"}],"stateMutability":"view","type":"function"},{"inputs":[],"name":"owner","outputs":[{"internalType":"address","name":"","type":"address"}],"stateMutability":"view","type":"function"},{"inputs":[],"name":"payer","outputs":[{"internalType":"address","name":"","type":"address"}],"stateMutability":"view","type":"function"},{"inputs":[],"name":"paymentType","outputs":[{"internalType":"string","name":"","type":"string"}],"stateMutability":"view","type":"function"},{"inputs":[],"name":"purpose","outputs":[{"internalType":"string","name":"","type":"string"}],"stateMutability":"view","type":"function"},{"inputs":[],"name":"renounceOwnership","outputs":[],"stateMutability":"nonpayable","type":"function"},{"inputs":[{"internalType":"uint256","name":"_requestId","type":"uint256"},{"internalType":"uint256","name":"_timestamp","type":"uint256"}],"name":"retrieveData","outputs":[{"internalType":"uint256","name":"","type":"uint256"}],"stateMutability":"view","type":"function"},{"inputs":[],"name":"selectedToken","outputs":[{"internalType":"string","name":"","type":"string"}],"stateMutability":"view","type":"function"},{"inputs":[{"internalType":"int256","name":"_amount","type":"int256"}],"name":"setAmount","outputs":[],"stateMutability":"nonpayable","type":"function"},{"inputs":[],"name":"setBtcPrice","outputs":[],"stateMutability":"nonpayable","type":"function"},{"inputs":[{"internalType":"int256","name":"_maxResolutionTime","type":"int256"}],"name":"setMaxResolutionTime","outputs":[],"stateMutability":"nonpayable","type":"function"},{"inputs":[{"internalType":"string","name":"_paymentType","type":"string"}],"name":"setPaymentType","outputs":[],"stateMutability":"nonpayable","type":"function"},{"inputs":[{"internalType":"string","name":"_purpose","type":"string"}],"name":"setPurpose","outputs":[],"stateMutability":"nonpayable","type":"function"},{"inputs":[{"internalType":"string","name":"_supportedTokens","type":"string"}],"name":"setSupportedTokens","outputs":[],"stateMutability":"nonpayable","type":"function"},{"inputs":[],"name":"supportedTokens","outputs":[{"internalType":"string","name":"","type":"string"}],"stateMutability":"view","type":"function"},{"inputs":[{"internalType":"address","name":"newOwner","type":"address"}],"name":"transferOwnership","outputs":[],"stateMutability":"nonpayable","type":"function"},{"inputs":[],"name":"uniToEth","outputs":[{"internalType":"int256","name":"","type":"int256"}],"stateMutability":"view","type":"function"},{"inputs":[],"name":"usdPrice","outputs":[{"internalType":"int256","name":"","type":"int256"}],"stateMutability":"view","type":"function"}]}