{"address":"0x0A420ad1627825e88f31eEd9B6b152948b1B2141","bytecode":"0x60806040526000808055600155600480546001600160a01b03191673e5050ec33578cb72554b696e6721369b660f3c7217905534801561003e57600080fd5b5060405161085938038061085983398101604081905261005d916101d3565b60008490556001839055815161007a906002906020850190610098565b50805161008e906003906020840190610098565b5050505050610247565b828054600181600116156101000203166002900490600052602060002090601f016020900481019282601f106100d957805160ff1916838001178555610106565b82800160010185558215610106579182015b828111156101065782518255916020019190600101906100eb565b50610112929150610116565b5090565b61013091905b80821115610112576000815560010161011c565b90565b600082601f830112610143578081fd5b81516001600160401b0380821115610159578283fd5b6040516020601f8401601f191682018101838111838210171561017a578586fd5b8060405250819450838252868185880101111561019657600080fd5b600092505b838310156101b8578583018101518284018201529182019161019b565b838311156101c95760008185840101525b5050505092915050565b600080600080608085870312156101e8578384fd5b84516020860151604087015191955093506001600160401b038082111561020d578384fd5b61021988838901610133565b9350606087015191508082111561022e578283fd5b5061023b87828801610133565b91505092959194509250565b610603806102566000396000f3fe608060405234801561001057600080fd5b50600436106100935760003560e01c8063941a0fce11610066578063941a0fce146100f3578063a035b1fe14610106578063a1ff401f1461011b578063acc5e78214610123578063b002249d1461013657610093565b80637284e416146100985780638da5cb5b146100b657806390c3f38f146100cb57806391b7f5ed146100e0575b600080fd5b6100a061013e565b6040516100ad9190610559565b60405180910390f35b6100be6101cc565b6040516100ad9190610492565b6100de6100d93660046103df565b6101db565b005b6100de6100ee36600461047a565b61022c565b6100de61010136600461047a565b610263565b61010e61029a565b6040516100ad91906105ac565b61010e6102a0565b6100de6101313660046103df565b6102a6565b6100a06102ec565b6003805460408051602060026001851615610100026000190190941693909304601f810184900484028201840190925281815292918301828280156101c45780601f10610199576101008083540402835291602001916101c4565b820191906000526020600020905b8154815290600101906020018083116101a757829003601f168201915b505050505081565b6004546001600160a01b031681565b80516101ee906003906020840190610344565b507fcde40adb1ba9fbdc15bc4e6bd903bea34c369a14e7f2266b3fe8af1282b5cf1e3360036040516102219291906104a6565b60405180910390a150565b60008190556040517f95dce27040c59c8b1c445b284f81a3aaae6eecd7d08d5c7684faee64cdb514a1906102219033908490610540565b60018190556040517f4ffab8f1e3e58b989ec4e200f77c91ef3f41f464269763b3866a73732a60c51a906102219033908490610540565b60005481565b60015481565b80516102b9906002906020840190610344565b507f07c1d899268324f9ff1bb6002db09045bf15596bd7b78c87db5fb1b3df6fb2063360026040516102219291906104a6565b6002805460408051602060018416156101000260001901909316849004601f810184900484028201840190925281815292918301828280156101c45780601f10610199576101008083540402835291602001916101c4565b828054600181600116156101000203166002900490600052602060002090601f016020900481019282601f1061038557805160ff19168380011785556103b2565b828001600101855582156103b2579182015b828111156103b2578251825591602001919060010190610397565b506103be9291506103c2565b5090565b6103dc91905b808211156103be57600081556001016103c8565b90565b6000602082840312156103f0578081fd5b813567ffffffffffffffff80821115610407578283fd5b81840185601f820112610418578384fd5b8035925081831115610428578384fd5b604051601f8401601f191681016020018381118282101715610448578586fd5b60405283815281840160200187101561045f578485fd5b6104708460208301602085016105c1565b9695505050505050565b60006020828403121561048b578081fd5b5035919050565b6001600160a01b0391909116815260200190565b60006040820160018060a01b038516835260206040818501528285546001808216600081146104dc57600181146104fa57610532565b60028304607f16865260ff1983166060890152608088019350610532565b6002830480875261050a8a6105b5565b885b828110156105285781548b82016060015290840190870161050c565b8a01606001955050505b509198975050505050505050565b6001600160a01b03929092168252602082015260400190565b6000602080835283518082850152825b8181101561058557858101830151858201604001528201610569565b818111156105965783604083870101525b50601f01601f1916929092016040019392505050565b90815260200190565b60009081526020902090565b8281833750600091015256fea2646970667358221220235a3bb2d98cf3910d9b546468ee051b654db3edf99d75394a2f48f17fd590ae64736f6c63430006070033","abi":[{"inputs":[{"internalType":"uint256","name":"_price","type":"uint256"},{"internalType":"uint256","name":"_maxResolutionTime","type":"uint256"},{"internalType":"string","name":"_supportedTokens","type":"string"},{"internalType":"string","name":"_description","type":"string"}],"stateMutability":"nonpayable","type":"constructor"},{"anonymous":false,"inputs":[{"indexed":false,"internalType":"address","name":"sender","type":"address"},{"indexed":false,"internalType":"string","name":"description","type":"string"}],"name":"SetDescription","type":"event"},{"anonymous":false,"inputs":[{"indexed":false,"internalType":"address","name":"sender","type":"address"},{"indexed":false,"internalType":"uint256","name":"maxResolutionTime","type":"uint256"}],"name":"SetMaxResolutionTime","type":"event"},{"anonymous":false,"inputs":[{"indexed":false,"internalType":"address","name":"sender","type":"address"},{"indexed":false,"internalType":"uint256","name":"price","type":"uint256"}],"name":"SetPrice","type":"event"},{"anonymous":false,"inputs":[{"indexed":false,"internalType":"address","name":"sender","type":"address"},{"indexed":false,"internalType":"string","name":"supportedTokens","type":"string"}],"name":"SetSupportedTokens","type":"event"},{"inputs":[],"name":"description","outputs":[{"internalType":"string","name":"","type":"string"}],"stateMutability":"view","type":"function"},{"inputs":[],"name":"maxResolutionTime","outputs":[{"internalType":"uint256","name":"","type":"uint256"}],"stateMutability":"view","type":"function"},{"inputs":[],"name":"owner","outputs":[{"internalType":"address","name":"","type":"address"}],"stateMutability":"view","type":"function"},{"inputs":[],"name":"price","outputs":[{"internalType":"uint256","name":"","type":"uint256"}],"stateMutability":"view","type":"function"},{"inputs":[{"internalType":"string","name":"_description","type":"string"}],"name":"setDescription","outputs":[],"stateMutability":"nonpayable","type":"function"},{"inputs":[{"internalType":"uint256","name":"_maxResolutionTime","type":"uint256"}],"name":"setMaxResolutionTime","outputs":[],"stateMutability":"nonpayable","type":"function"},{"inputs":[{"internalType":"uint256","name":"_price","type":"uint256"}],"name":"setPrice","outputs":[],"stateMutability":"nonpayable","type":"function"},{"inputs":[{"internalType":"string","name":"_supportedTokens","type":"string"}],"name":"setSupportedTokens","outputs":[],"stateMutability":"nonpayable","type":"function"},{"inputs":[],"name":"supportedTokens","outputs":[{"internalType":"string","name":"","type":"string"}],"stateMutability":"view","type":"function"}]}