{"address":"0xAEED05E593d2786c20fd266B2EdF2970f2f1ac35","bytecode":"0x60806040523480156200001157600080fd5b5060405162000e6938038062000e69833981016040819052620000349162000288565b6000620000496001600160e01b036200013a16565b600080546001600160a01b0319166001600160a01b0383169081178255604051929350917f8be0079c531659141344cd1fd0a4f28419497f9722a3daafe3b4186f6b6457e0908290a350600184905560028390558151620000b29060039060208501906200013f565b508051620000c89060049060208401906200013f565b5050600580546001600160a01b0319908116739326bfa02add2366b30bacb125260af64103133117909155600680548216733af8c569ab77af5230596acf0e8c2f9351d24c38179055600780549091167317756515f112429471f86f98d5052acb6c47f6ee1790555062000303915050565b335b90565b828054600181600116156101000203166002900490600052602060002090601f016020900481019282601f106200018257805160ff1916838001178555620001b2565b82800160010185558215620001b2579182015b82811115620001b257825182559160200191906001019062000195565b50620001c0929150620001c4565b5090565b6200013c91905b80821115620001c05760008155600101620001cb565b600082601f830112620001f2578081fd5b81516001600160401b038082111562000209578283fd5b6040516020601f8401601f19168201810183811183821017156200022b578586fd5b806040525081945083825286818588010111156200024857600080fd5b600092505b838310156200026c57858301810151828401820152918201916200024d565b838311156200027e5760008185840101525b5050505092915050565b600080600080608085870312156200029e578384fd5b84516020860151604087015191955093506001600160401b0380821115620002c4578384fd5b620002d288838901620001e1565b93506060870151915080821115620002e8578283fd5b50620002f787828801620001e1565b91505092959194509250565b610b5680620003136000396000f3fe608060405234801561001057600080fd5b50600436106100ea5760003560e01c8063a1ff401f1161008c578063c4abddee11610066578063c4abddee1461017c578063eb68757f1461018f578063f2fde38b146101a2578063f7a30806146101b5576100ea565b8063a1ff401f14610159578063acc5e78214610161578063b002249d14610174576100ea565b8063715018a6116100c8578063715018a61461012a5780638da5cb5b146101345780639c66d1ec14610149578063a035b1fe14610151576100ea565b806350346dc6146100ef5780636619aa861461010d57806370740aab14610115575b600080fd5b6100f76101c8565b6040516101049190610a31565b60405180910390f35b6100f7610267565b61011d61030a565b6040516101049190610a3a565b610132610398565b005b61013c610420565b604051610104919061096a565b6100f761042f565b6100f7610486565b6100f761048c565b61013261016f36600461087e565b610492565b61011d610518565b61013261018a366004610866565b610573565b61013261019d36600461087e565b6105df565b6101326101b0366004610838565b61065a565b6101326101c3366004610866565b610710565b600080600080600080600760009054906101000a90046001600160a01b03166001600160a01b031663feaf968c6040518163ffffffff1660e01b815260040160a06040518083038186803b15801561021f57600080fd5b505afa158015610233573d6000803e3d6000fd5b505050506040513d601f19601f820116820180604052508101906102579190610919565b5091985050505050505050505b90565b600080600080600080600560009054906101000a90046001600160a01b03166001600160a01b031663feaf968c6040518163ffffffff1660e01b815260040160a06040518083038186803b1580156102be57600080fd5b505afa1580156102d2573d6000803e3d6000fd5b505050506040513d601f19601f820116820180604052508101906102f69190610919565b505060015490910297505050505050505090565b6004805460408051602060026001851615610100026000190190941693909304601f810184900484028201840190925281815292918301828280156103905780601f1061036557610100808354040283529160200191610390565b820191906000526020600020905b81548152906001019060200180831161037357829003601f168201915b505050505081565b6103a061077c565b6000546001600160a01b039081169116146103d65760405162461bcd60e51b81526004016103cd90610ad3565b60405180910390fd5b600080546040516001600160a01b03909116907f8be0079c531659141344cd1fd0a4f28419497f9722a3daafe3b4186f6b6457e0908390a3600080546001600160a01b0319169055565b6000546001600160a01b031690565b600080600080600080600660009054906101000a90046001600160a01b03166001600160a01b031663feaf968c6040518163ffffffff1660e01b815260040160a06040518083038186803b15801561021f57600080fd5b60015481565b60025481565b61049a61077c565b6000546001600160a01b039081169116146104c75760405162461bcd60e51b81526004016103cd90610ad3565b80516104da906003906020840190610780565b507f07c1d899268324f9ff1bb6002db09045bf15596bd7b78c87db5fb1b3df6fb20633600360405161050d929190610997565b60405180910390a150565b6003805460408051602060026001851615610100026000190190941693909304601f810184900484028201840190925281815292918301828280156103905780601f1061036557610100808354040283529160200191610390565b61057b61077c565b6000546001600160a01b039081169116146105a85760405162461bcd60e51b81526004016103cd90610ad3565b60028190556040517fe52b52b6121c477451fcdae56ad4fcc793fdf673944fc29f2670179538ab863d9061050d903390849061097e565b6105e761077c565b6000546001600160a01b039081169116146106145760405162461bcd60e51b81526004016103cd90610ad3565b8051610627906004906020840190610780565b507f6ea5d6383a120235c7728a9a6751672a8ac068e4ed34dcca2ee444182c1812de33600460405161050d929190610997565b61066261077c565b6000546001600160a01b0390811691161461068f5760405162461bcd60e51b81526004016103cd90610ad3565b6001600160a01b0381166106b55760405162461bcd60e51b81526004016103cd90610a8d565b600080546040516001600160a01b03808516939216917f8be0079c531659141344cd1fd0a4f28419497f9722a3daafe3b4186f6b6457e091a3600080546001600160a01b0319166001600160a01b0392909216919091179055565b61071861077c565b6000546001600160a01b039081169116146107455760405162461bcd60e51b81526004016103cd90610ad3565b60018190556040517fb1805a7b88a8b28b97e772b6d20e1c0447bde41d3d77b29b25a5daef315980d89061050d903390849061097e565b3390565b828054600181600116156101000203166002900490600052602060002090601f016020900481019282601f106107c157805160ff19168380011785556107ee565b828001600101855582156107ee579182015b828111156107ee5782518255916020019190600101906107d3565b506107fa9291506107fe565b5090565b61026491905b808211156107fa5760008155600101610804565b805169ffffffffffffffffffff8116811461083257600080fd5b92915050565b600060208284031215610849578081fd5b81356001600160a01b038116811461085f578182fd5b9392505050565b600060208284031215610877578081fd5b5035919050565b60006020828403121561088f578081fd5b813567ffffffffffffffff808211156108a6578283fd5b81840185601f8201126108b7578384fd5b80359250818311156108c7578384fd5b604051601f8401601f1916810160200183811182821017156108e7578586fd5b6040528381528184016020018710156108fe578485fd5b61090f846020830160208501610b14565b9695505050505050565b600080600080600060a08688031215610930578081fd5b61093a8787610818565b945060208601519350604086015192506060860151915061095e8760808801610818565b90509295509295909350565b6001600160a01b0391909116815260200190565b6001600160a01b03929092168252602082015260400190565b60006040820160018060a01b038516835260206040818501528285546001808216600081146109cd57600181146109eb57610a23565b60028304607f16865260ff1983166060890152608088019350610a23565b600283048087526109fb8a610b08565b885b82811015610a195781548b8201606001529084019087016109fd565b8a01606001955050505b509198975050505050505050565b90815260200190565b6000602080835283518082850152825b81811015610a6657858101830151858201604001528201610a4a565b81811115610a775783604083870101525b50601f01601f1916929092016040019392505050565b60208082526026908201527f4f776e61626c653a206e6577206f776e657220697320746865207a65726f206160408201526564647265737360d01b606082015260800190565b6020808252818101527f4f776e61626c653a2063616c6c6572206973206e6f7420746865206f776e6572604082015260600190565b60009081526020902090565b8281833750600091015256fea2646970667358221220b08e733a5a656621b9ca6eaf628094738103ce51cdd0172c3989eb117751164064736f6c63430006070033","abi":[{"inputs":[{"internalType":"int256","name":"_price","type":"int256"},{"internalType":"int256","name":"_maxResolutionTime","type":"int256"},{"internalType":"string","name":"_supportedTokens","type":"string"},{"internalType":"string","name":"_purpose","type":"string"}],"stateMutability":"nonpayable","type":"constructor"},{"anonymous":false,"inputs":[{"indexed":true,"internalType":"address","name":"previousOwner","type":"address"},{"indexed":true,"internalType":"address","name":"newOwner","type":"address"}],"name":"OwnershipTransferred","type":"event"},{"anonymous":false,"inputs":[{"indexed":false,"internalType":"address","name":"sender","type":"address"},{"indexed":false,"internalType":"int256","name":"maxResolutionTime","type":"int256"}],"name":"SetMaxResolutionTime","type":"event"},{"anonymous":false,"inputs":[{"indexed":false,"internalType":"address","name":"sender","type":"address"},{"indexed":false,"internalType":"int256","name":"price","type":"int256"}],"name":"SetPrice","type":"event"},{"anonymous":false,"inputs":[{"indexed":false,"internalType":"address","name":"sender","type":"address"},{"indexed":false,"internalType":"string","name":"purpose","type":"string"}],"name":"SetPurpose","type":"event"},{"anonymous":false,"inputs":[{"indexed":false,"internalType":"address","name":"sender","type":"address"},{"indexed":false,"internalType":"string","name":"supportedTokens","type":"string"}],"name":"SetSupportedTokens","type":"event"},{"inputs":[],"name":"linkToEth","outputs":[{"internalType":"int256","name":"","type":"int256"}],"stateMutability":"view","type":"function"},{"inputs":[],"name":"maxResolutionTime","outputs":[{"internalType":"int256","name":"","type":"int256"}],"stateMutability":"view","type":"function"},{"inputs":[],"name":"owner","outputs":[{"internalType":"address","name":"","type":"address"}],"stateMutability":"view","type":"function"},{"inputs":[],"name":"price","outputs":[{"internalType":"int256","name":"","type":"int256"}],"stateMutability":"view","type":"function"},{"inputs":[],"name":"purpose","outputs":[{"internalType":"string","name":"","type":"string"}],"stateMutability":"view","type":"function"},{"inputs":[],"name":"renounceOwnership","outputs":[],"stateMutability":"nonpayable","type":"function"},{"inputs":[{"internalType":"int256","name":"_maxResolutionTime","type":"int256"}],"name":"setMaxResolutionTime","outputs":[],"stateMutability":"nonpayable","type":"function"},{"inputs":[{"internalType":"int256","name":"_price","type":"int256"}],"name":"setPrice","outputs":[],"stateMutability":"nonpayable","type":"function"},{"inputs":[{"internalType":"string","name":"_purpose","type":"string"}],"name":"setPurpose","outputs":[],"stateMutability":"nonpayable","type":"function"},{"inputs":[{"internalType":"string","name":"_supportedTokens","type":"string"}],"name":"setSupportedTokens","outputs":[],"stateMutability":"nonpayable","type":"function"},{"inputs":[],"name":"supportedTokens","outputs":[{"internalType":"string","name":"","type":"string"}],"stateMutability":"view","type":"function"},{"inputs":[{"internalType":"address","name":"newOwner","type":"address"}],"name":"transferOwnership","outputs":[],"stateMutability":"nonpayable","type":"function"},{"inputs":[],"name":"uniToEth","outputs":[{"internalType":"int256","name":"","type":"int256"}],"stateMutability":"view","type":"function"},{"inputs":[],"name":"usdPrice","outputs":[{"internalType":"int256","name":"","type":"int256"}],"stateMutability":"view","type":"function"}]}