{"address":"0x3980Eb6a5480F67c2eC94a29ada55b7c6d1D24Eb","bytecode":"0x60806040526001600a556003600c55601b600e5560276010553480156200002557600080fd5b5060405162001b6a38038062001b6a8339810160408190526200004891620002e1565b8060006200005e6001600160e01b036200019316565b600080546001600160a01b0319166001600160a01b0383169081178255604051929350917f8be0079c531659141344cd1fd0a4f28419497f9722a3daafe3b4186f6b6457e0908290a350600180546001600160a01b0319166001600160a01b0392909216919091179055600286905560038590558351620000e790600590602087019062000198565b508251620000fd90600690602086019062000198565b5081516200011390600490602085019062000198565b5050601180546001600160a01b0319908116739326bfa02add2366b30bacb125260af64103133117909155601280548216733af8c569ab77af5230596acf0e8c2f9351d24c381790556013805482167317756515f112429471f86f98d5052acb6c47f6ee9081179091556014805490921617905550620003a49350505050565b335b90565b828054600181600116156101000203166002900490600052602060002090601f016020900481019282601f10620001db57805160ff19168380011785556200020b565b828001600101855582156200020b579182015b828111156200020b578251825591602001919060010190620001ee565b50620002199291506200021d565b5090565b6200019591905b8082111562000219576000815560010162000224565b600082601f8301126200024b578081fd5b81516001600160401b038082111562000262578283fd5b6040516020601f8401601f191682018101838111838210171562000284578586fd5b80604052508194508382528681858801011115620002a157600080fd5b600092505b83831015620002c55785830181015182840182015291820191620002a6565b83831115620002d75760008185840101525b5050505092915050565b60008060008060008060c08789031215620002fa578182fd5b86516020880151604089015191975095506001600160401b038082111562000320578384fd5b6200032e8a838b016200023a565b9550606089015191508082111562000344578384fd5b620003528a838b016200023a565b9450608089015191508082111562000368578384fd5b506200037789828a016200023a565b60a089015190935090506001600160a01b038116811462000396578182fd5b809150509295509295509295565b6117b680620003b46000396000f3fe608060405234801561001057600080fd5b50600436106102115760003560e01c80638da5cb5b11610125578063b73e4979116100ad578063eb68757f1161007c578063eb68757f146103e6578063f23fe4c5146103f9578063f2fde38b14610401578063fb70c78014610414578063ff186b2e1461041c57610211565b8063b73e497914610397578063c4abddee146103b8578063d5ef8591146103cb578063dfb9ef4d146103d357610211565b8063aa8c217c116100f4578063aa8c217c14610364578063acc5e7821461036c578063b002249d1461037f578063b095c1bb14610387578063b3b3f5601461038f57610211565b80638da5cb5b1461032e57806393fa491514610336578063978a0cfe14610349578063a1ff401f1461035c57610211565b80633fcad964116101a857806370740aab1161017757806370740aab146102fb578063715018a6146103035780637645b5851461030b57806377a5ceca1461031357806377fbb6631461031b57610211565b80633fcad964146102ab57806346eee1c4146102cd578063576dde12146102e057806366b44611146102e857610211565b80632597b633116101e45780632597b633146102665780632763b8da1461026e5780632b193e6d146102835780633df0777b1461028b57610211565b80630cf7853514610216578063123119cd1461023457806316c3e16c146102495780631917ab5c14610251575b600080fd5b61021e610424565b60405161022b9190611683565b60405180910390f35b61023c61042a565b60405161022b91906115a2565b61021e610439565b61026461025f36600461147d565b6104d8565b005b61021e610529565b610276610580565b60405161022b919061168c565b61021e61060e565b61029e610299366004611530565b610665565b60405161022b9190611650565b6102be6102b9366004611465565b6106f1565b60405161022b9392919061166b565b61021e6102db366004611465565b6108b8565b61021e610939565b6102be6102f6366004611530565b61093f565b610276610a9d565b610264610af8565b610264610b80565b610264610b9a565b61021e610329366004611530565b610bb4565b61023c610c37565b61021e610344366004611530565b610c46565b61026461035736600461147d565b610c79565b61021e610cc5565b61021e610ccb565b61026461037a36600461147d565b610cd1565b610276610ce4565b610276610d3f565b610264610d9a565b6103aa6103a5366004611530565b610db4565b60405161022b92919061165b565b6102646103c6366004611465565b611190565b610264611195565b6102646103e1366004611465565b6111af565b6102646103f436600461147d565b6111b4565b61021e6111fc565b61026461040f366004611417565b611202565b61021e6112b8565b61021e61135b565b600d5481565b6007546001600160a01b031681565b600080600080600080601460009054906101000a90046001600160a01b03166001600160a01b031663feaf968c6040518163ffffffff1660e01b815260040160a06040518083038186803b15801561049057600080fd5b505afa1580156104a4573d6000803e3d6000fd5b505050506040513d601f19601f820116820180604052508101906104c89190611551565b5091985050505050505050505b90565b80516104eb906008906020840190611365565b507f79e6e700d65183b2eea70aa0cc25aa0852c71dd6fc43912af9318814aa83737233600860405161051e9291906115b6565b60405180910390a150565b600080600080600080601260009054906101000a90046001600160a01b03166001600160a01b031663feaf968c6040518163ffffffff1660e01b815260040160a06040518083038186803b15801561049057600080fd5b6004805460408051602060026001851615610100026000190190941693909304601f810184900484028201840190925281815292918301828280156106065780601f106105db57610100808354040283529160200191610606565b820191906000526020600020905b8154815290600101906020018083116105e957829003601f168201915b505050505081565b600080600080600080601360009054906101000a90046001600160a01b03166001600160a01b031663feaf968c6040518163ffffffff1660e01b815260040160a06040518083038186803b15801561049057600080fd5b600154604051633df0777b60e01b81526000916001600160a01b031690633df0777b90610698908690869060040161175a565b60206040518083038186803b1580156106b057600080fd5b505afa1580156106c4573d6000803e3d6000fd5b505050506040513d601f19601f820116820180604052508101906106e89190611445565b90505b92915050565b6001546040516311bbb87160e21b81526000918291829182916001600160a01b03909116906346eee1c49061072a908890600401611683565b60206040518083038186803b15801561074257600080fd5b505afa158015610756573d6000803e3d6000fd5b505050506040513d601f19601f8201168201806040525081019061077a9190611518565b6001546040516377fbb66360e01b81529192506000916001600160a01b03909116906377fbb663906107b690899060001987019060040161175a565b60206040518083038186803b1580156107ce57600080fd5b505afa1580156107e2573d6000803e3d6000fd5b505050506040513d601f19601f820116820180604052508101906108069190611518565b6001546040516393fa491560e01b81529192506000916001600160a01b03909116906393fa49159061083e908a90869060040161175a565b60206040518083038186803b15801561085657600080fd5b505afa15801561086a573d6000803e3d6000fd5b505050506040513d601f19601f8201168201806040525081019061088e9190611518565b905080156108a55760019550935091506108b19050565b50600094508493509150505b9193909250565b6001546040516311bbb87160e21b81526000916001600160a01b0316906346eee1c4906108e9908590600401611683565b60206040518083038186803b15801561090157600080fd5b505afa158015610915573d6000803e3d6000fd5b505050506040513d601f19601f820116820180604052508101906106eb9190611518565b600b5481565b60008060008060006109518787610db4565b915091508161096c575060009350839250829150610a969050565b6001546040516377fbb66360e01b81526000916001600160a01b0316906377fbb6639061099f908b90869060040161175a565b60206040518083038186803b1580156109b757600080fd5b505afa1580156109cb573d6000803e3d6000fd5b505050506040513d601f19601f820116820180604052508101906109ef9190611518565b6001546040516393fa491560e01b81529192506001600160a01b0316906393fa491590610a22908b90859060040161175a565b60206040518083038186803b158015610a3a57600080fd5b505afa158015610a4e573d6000803e3d6000fd5b505050506040513d601f19601f82011682018060405250810190610a729190611518565b94508415610a8857600195509250610a96915050565b506000945084935083925050505b9250925092565b6006805460408051602060026001851615610100026000190190941693909304601f810184900484028201840190925281815292918301828280156106065780601f106105db57610100808354040283529160200191610606565b610b00611361565b6000546001600160a01b03908116911614610b365760405162461bcd60e51b8152600401610b2d90611725565b60405180910390fd5b600080546040516001600160a01b03909116907f8be0079c531659141344cd1fd0a4f28419497f9722a3daafe3b4186f6b6457e0908390a3600080546001600160a01b0319169055565b6000806000610b90600c546106f1565b50600b5550505050565b6000806000610baa600a546106f1565b5060095550505050565b6001546040516377fbb66360e01b81526000916001600160a01b0316906377fbb66390610be7908690869060040161175a565b60206040518083038186803b158015610bff57600080fd5b505afa158015610c13573d6000803e3d6000fd5b505050506040513d601f19601f820116820180604052508101906106e89190611518565b6000546001600160a01b031690565b6001546040516393fa491560e01b81526000916001600160a01b0316906393fa491590610be7908690869060040161175a565b610c81611361565b6000546001600160a01b03908116911614610cae5760405162461bcd60e51b8152600401610b2d90611725565b8051610cc1906004906020840190611365565b5050565b60035481565b60025481565b8051610cc1906005906020840190611365565b6005805460408051602060026001851615610100026000190190941693909304601f810184900484028201840190925281815292918301828280156106065780601f106105db57610100808354040283529160200191610606565b6008805460408051602060026001851615610100026000190190941693909304601f810184900484028201840190925281815292918301828280156106065780601f106105db57610100808354040283529160200191610606565b6000806000610daa6010546106f1565b50600f5550505050565b6001546040516311bbb87160e21b8152600091829182916001600160a01b0316906346eee1c490610de9908890600401611683565b60206040518083038186803b158015610e0157600080fd5b505afa158015610e15573d6000803e3d6000fd5b505050506040513d601f19601f82011682018060405250810190610e399190611518565b90508015611180576001546040516377fbb66360e01b8152600091829160001985019183916001600160a01b03909116906377fbb66390610e80908c90859060040161175a565b60206040518083038186803b158015610e9857600080fd5b505afa158015610eac573d6000803e3d6000fd5b505050506040513d601f19601f82011682018060405250810190610ed09190611518565b9050878110610eeb5750600095508594506111899350505050565b6001546040516377fbb66360e01b81526001600160a01b03909116906377fbb66390610f1d908c90869060040161175a565b60206040518083038186803b158015610f3557600080fd5b505afa158015610f49573d6000803e3d6000fd5b505050506040513d601f19601f82011682018060405250810190610f6d9190611518565b905087811015610f87575060019550935061118992505050565b600180546040516377fbb66360e01b8152600286860304860190920195506001600160a01b0316906377fbb66390610fc5908c90889060040161175a565b60206040518083038186803b158015610fdd57600080fd5b505afa158015610ff1573d6000803e3d6000fd5b505050506040513d601f19601f820116820180604052508101906110159190611518565b9050878110156110ce57600180546040516377fbb66360e01b81526000926001600160a01b03909216916377fbb66391611057918e91908a019060040161175a565b60206040518083038186803b15801561106f57600080fd5b505afa158015611083573d6000803e3d6000fd5b505050506040513d601f19601f820116820180604052508101906110a79190611518565b90508881106110c25760018597509750505050505050611189565b8460010193505061117b565b6001546040516377fbb66360e01b81526000916001600160a01b0316906377fbb66390611105908d906000198a019060040161175a565b60206040518083038186803b15801561111d57600080fd5b505afa158015611131573d6000803e3d6000fd5b505050506040513d601f19601f820116820180604052508101906111559190611518565b90508881101561117357600180860397509750505050505050611189565b600185039250505b610f87565b50600091508190505b9250929050565b600355565b60008060006111a5600e546106f1565b50600d5550505050565b600255565b6111bc611361565b6000546001600160a01b039081169116146111e95760405162461bcd60e51b8152600401610b2d90611725565b8051610cc1906006906020840190611365565b600f5481565b61120a611361565b6000546001600160a01b039081169116146112375760405162461bcd60e51b8152600401610b2d90611725565b6001600160a01b03811661125d5760405162461bcd60e51b8152600401610b2d906116df565b600080546040516001600160a01b03808516939216917f8be0079c531659141344cd1fd0a4f28419497f9722a3daafe3b4186f6b6457e091a3600080546001600160a01b0319166001600160a01b0392909216919091179055565b600080600080600080601160009054906101000a90046001600160a01b03166001600160a01b031663feaf968c6040518163ffffffff1660e01b815260040160a06040518083038186803b15801561130f57600080fd5b505afa158015611323573d6000803e3d6000fd5b505050506040513d601f19601f820116820180604052508101906113479190611551565b505060025490910297505050505050505090565b60095481565b3390565b828054600181600116156101000203166002900490600052602060002090601f016020900481019282601f106113a657805160ff19168380011785556113d3565b828001600101855582156113d3579182015b828111156113d35782518255916020019190600101906113b8565b506113df9291506113e3565b5090565b6104d591905b808211156113df57600081556001016113e9565b805169ffffffffffffffffffff811681146106eb57600080fd5b600060208284031215611428578081fd5b81356001600160a01b038116811461143e578182fd5b9392505050565b600060208284031215611456578081fd5b8151801515811461143e578182fd5b600060208284031215611476578081fd5b5035919050565b60006020828403121561148e578081fd5b813567ffffffffffffffff808211156114a5578283fd5b81840185601f8201126114b6578384fd5b80359250818311156114c6578384fd5b604051601f8401601f1916810160200183811182821017156114e6578586fd5b6040528381528184016020018710156114fd578485fd5b61150e846020830160208501611774565b9695505050505050565b600060208284031215611529578081fd5b5051919050565b60008060408385031215611542578081fd5b50508035926020909101359150565b600080600080600060a08688031215611568578081fd5b61157287876113fd565b945060208601519350604086015192506060860151915061159687608088016113fd565b90509295509295909350565b6001600160a01b0391909116815260200190565b60006040820160018060a01b038516835260206040818501528285546001808216600081146115ec576001811461160a57611642565b60028304607f16865260ff1983166060890152608088019350611642565b6002830480875261161a8a611768565b885b828110156116385781548b82016060015290840190870161161c565b8a01606001955050505b509198975050505050505050565b901515815260200190565b9115158252602082015260400190565b92151583526020830191909152604082015260600190565b90815260200190565b6000602080835283518082850152825b818110156116b85785810183015185820160400152820161169c565b818111156116c95783604083870101525b50601f01601f1916929092016040019392505050565b60208082526026908201527f4f776e61626c653a206e6577206f776e657220697320746865207a65726f206160408201526564647265737360d01b606082015260800190565b6020808252818101527f4f776e61626c653a2063616c6c6572206973206e6f7420746865206f776e6572604082015260600190565b918252602082015260400190565b60009081526020902090565b8281833750600091015256fea2646970667358221220b4cb8f9fe282134e26a5ee560da19277982d202a8a5cfef54556da4b95de2f7764736f6c63430006070033","abi":[{"inputs":[{"internalType":"int256","name":"_amount","type":"int256"},{"internalType":"int256","name":"_maxResolutionTime","type":"int256"},{"internalType":"string","name":"_supportedTokens","type":"string"},{"internalType":"string","name":"_purpose","type":"string"},{"internalType":"string","name":"_paymentType","type":"string"},{"internalType":"address payable","name":"_tellorAddress","type":"address"}],"stateMutability":"nonpayable","type":"constructor"},{"anonymous":false,"inputs":[{"indexed":true,"internalType":"address","name":"previousOwner","type":"address"},{"indexed":true,"internalType":"address","name":"newOwner","type":"address"}],"name":"OwnershipTransferred","type":"event"},{"anonymous":false,"inputs":[{"indexed":false,"internalType":"address","name":"sender","type":"address"},{"indexed":false,"internalType":"string","name":"selectedToken","type":"string"}],"name":"PaymentActivated","type":"event"},{"inputs":[{"internalType":"string","name":"_selectedToken","type":"string"}],"name":"activate","outputs":[],"stateMutability":"nonpayable","type":"function"},{"inputs":[],"name":"amount","outputs":[{"internalType":"int256","name":"","type":"int256"}],"stateMutability":"view","type":"function"},{"inputs":[],"name":"bnbPrice","outputs":[{"internalType":"uint256","name":"","type":"uint256"}],"stateMutability":"view","type":"function"},{"inputs":[],"name":"daiPrice","outputs":[{"internalType":"uint256","name":"","type":"uint256"}],"stateMutability":"view","type":"function"},{"inputs":[],"name":"ethPrice","outputs":[{"internalType":"uint256","name":"","type":"uint256"}],"stateMutability":"view","type":"function"},{"inputs":[{"internalType":"uint256","name":"_requestId","type":"uint256"}],"name":"getCurrentValue","outputs":[{"internalType":"bool","name":"ifRetrieve","type":"bool"},{"internalType":"uint256","name":"value","type":"uint256"},{"internalType":"uint256","name":"_timestampRetrieved","type":"uint256"}],"stateMutability":"view","type":"function"},{"inputs":[{"internalType":"uint256","name":"_requestId","type":"uint256"},{"internalType":"uint256","name":"_timestamp","type":"uint256"}],"name":"getDataBefore","outputs":[{"internalType":"bool","name":"_ifRetrieve","type":"bool"},{"internalType":"uint256","name":"_value","type":"uint256"},{"internalType":"uint256","name":"_timestampRetrieved","type":"uint256"}],"stateMutability":"view","type":"function"},{"inputs":[{"internalType":"uint256","name":"_requestId","type":"uint256"},{"internalType":"uint256","name":"_timestamp","type":"uint256"}],"name":"getIndexForDataBefore","outputs":[{"internalType":"bool","name":"found","type":"bool"},{"internalType":"uint256","name":"index","type":"uint256"}],"stateMutability":"view","type":"function"},{"inputs":[{"internalType":"uint256","name":"_requestId","type":"uint256"}],"name":"getNewValueCountbyRequestId","outputs":[{"internalType":"uint256","name":"","type":"uint256"}],"stateMutability":"view","type":"function"},{"inputs":[{"internalType":"uint256","name":"_requestId","type":"uint256"},{"internalType":"uint256","name":"_index","type":"uint256"}],"name":"getTimestampbyRequestIDandIndex","outputs":[{"internalType":"uint256","name":"","type":"uint256"}],"stateMutability":"view","type":"function"},{"inputs":[{"internalType":"uint256","name":"_requestId","type":"uint256"},{"internalType":"uint256","name":"_timestamp","type":"uint256"}],"name":"isInDispute","outputs":[{"internalType":"bool","name":"","type":"bool"}],"stateMutability":"view","type":"function"},{"inputs":[],"name":"kovanDaiToEth","outputs":[{"internalType":"int256","name":"","type":"int256"}],"stateMutability":"view","type":"function"},{"inputs":[],"name":"kovanLinkToEth","outputs":[{"internalType":"int256","name":"","type":"int256"}],"stateMutability":"view","type":"function"},{"inputs":[],"name":"kovanUniToEth","outputs":[{"internalType":"int256","name":"","type":"int256"}],"stateMutability":"view","type":"function"},{"inputs":[],"name":"kovanUsdPrice","outputs":[{"internalType":"int256","name":"","type":"int256"}],"stateMutability":"view","type":"function"},{"inputs":[],"name":"linkPrice","outputs":[{"internalType":"uint256","name":"","type":"uint256"}],"stateMutability":"view","type":"function"},{"inputs":[],"name":"maxResolutionTime","outputs":[{"internalType":"int256","name":"","type":"int256"}],"stateMutability":"view","type":"function"},{"inputs":[],"name":"owner","outputs":[{"internalType":"address","name":"","type":"address"}],"stateMutability":"view","type":"function"},{"inputs":[],"name":"payer","outputs":[{"internalType":"address","name":"","type":"address"}],"stateMutability":"view","type":"function"},{"inputs":[],"name":"paymentType","outputs":[{"internalType":"string","name":"","type":"string"}],"stateMutability":"view","type":"function"},{"inputs":[],"name":"purpose","outputs":[{"internalType":"string","name":"","type":"string"}],"stateMutability":"view","type":"function"},{"inputs":[],"name":"renounceOwnership","outputs":[],"stateMutability":"nonpayable","type":"function"},{"inputs":[{"internalType":"uint256","name":"_requestId","type":"uint256"},{"internalType":"uint256","name":"_timestamp","type":"uint256"}],"name":"retrieveData","outputs":[{"internalType":"uint256","name":"","type":"uint256"}],"stateMutability":"view","type":"function"},{"inputs":[],"name":"ropstenGetBnbPrice","outputs":[],"stateMutability":"nonpayable","type":"function"},{"inputs":[],"name":"ropstenGetDaiPrice","outputs":[],"stateMutability":"nonpayable","type":"function"},{"inputs":[],"name":"ropstenGetEthPrice","outputs":[],"stateMutability":"nonpayable","type":"function"},{"inputs":[],"name":"ropstenGetLinkPrice","outputs":[],"stateMutability":"nonpayable","type":"function"},{"inputs":[],"name":"selectedToken","outputs":[{"internalType":"string","name":"","type":"string"}],"stateMutability":"view","type":"function"},{"inputs":[{"internalType":"int256","name":"_amount","type":"int256"}],"name":"setAmount","outputs":[],"stateMutability":"nonpayable","type":"function"},{"inputs":[{"internalType":"int256","name":"_maxResolutionTime","type":"int256"}],"name":"setMaxResolutionTime","outputs":[],"stateMutability":"nonpayable","type":"function"},{"inputs":[{"internalType":"string","name":"_paymentType","type":"string"}],"name":"setPaymentType","outputs":[],"stateMutability":"nonpayable","type":"function"},{"inputs":[{"internalType":"string","name":"_purpose","type":"string"}],"name":"setPurpose","outputs":[],"stateMutability":"nonpayable","type":"function"},{"inputs":[{"internalType":"string","name":"_supportedTokens","type":"string"}],"name":"setSupportedTokens","outputs":[],"stateMutability":"nonpayable","type":"function"},{"inputs":[],"name":"supportedTokens","outputs":[{"internalType":"string","name":"","type":"string"}],"stateMutability":"view","type":"function"},{"inputs":[{"internalType":"address","name":"newOwner","type":"address"}],"name":"transferOwnership","outputs":[],"stateMutability":"nonpayable","type":"function"}]}