{"address":"0xaE9317Ec65d1Afd3c8A09DfbA189CDceb3888d5c","bytecode":"0x608060405260026009553480156200001657600080fd5b5060405162001959380380620019598339810160408190526200003991620002af565b8060006200004f6001600160e01b036200016116565b600080546001600160a01b0319166001600160a01b0383169081178255604051929350917f8be0079c531659141344cd1fd0a4f28419497f9722a3daafe3b4186f6b6457e0908290a350600180546001600160a01b0319166001600160a01b0392909216919091179055600285905560038490558251620000d890600490602086019062000166565b508151620000ee90600590602085019062000166565b5050600a80546001600160a01b0319908116739326bfa02add2366b30bacb125260af64103133117909155600b80548216733af8c569ab77af5230596acf0e8c2f9351d24c38179055600c80549091167317756515f112429471f86f98d5052acb6c47f6ee179055506200034d92505050565b335b90565b828054600181600116156101000203166002900490600052602060002090601f016020900481019282601f10620001a957805160ff1916838001178555620001d9565b82800160010185558215620001d9579182015b82811115620001d9578251825591602001919060010190620001bc565b50620001e7929150620001eb565b5090565b6200016391905b80821115620001e75760008155600101620001f2565b600082601f83011262000219578081fd5b81516001600160401b038082111562000230578283fd5b6040516020601f8401601f191682018101838111838210171562000252578586fd5b806040525081945083825286818588010111156200026f57600080fd5b600092505b8383101562000293578583018101518284018201529182019162000274565b83831115620002a55760008185840101525b5050505092915050565b600080600080600060a08688031215620002c7578081fd5b85516020870151604088015191965094506001600160401b0380821115620002ed578283fd5b620002fb89838a0162000208565b9450606088015191508082111562000311578283fd5b50620003208882890162000208565b608088015190935090506001600160a01b03811681146200033f578182fd5b809150509295509295909350565b6115fc806200035d6000396000f3fe608060405234801561001057600080fd5b50600436106101735760003560e01c80638da5cb5b116100de578063b002249d11610097578063c4abddee11610071578063c4abddee146102df578063dfb9ef4d146102f2578063eb68757f14610305578063f2fde38b1461031857610173565b8063b002249d146102ae578063b095c1bb146102b6578063b73e4979146102be57610173565b80638da5cb5b1461026857806393fa4915146102705780639c66d1ec14610283578063a1ff401f1461028b578063aa8c217c14610293578063acc5e7821461029b57610173565b806350346dc61161013057806350346dc6146102155780636619aa861461021d57806366b446111461022557806370740aab14610238578063715018a61461024d57806377fbb6631461025557610173565b8063123119cd1461017857806317948fde146101965780631917ab5c146101a05780633df0777b146101b35780633fcad964146101d357806346eee1c4146101f5575b600080fd5b61018061032b565b60405161018d91906113e8565b60405180910390f35b61019e61033a565b005b61019e6101ae3660046112c3565b610354565b6101c66101c1366004611376565b6103a5565b60405161018d9190611496565b6101e66101e13660046112ab565b610431565b60405161018d939291906114b1565b6102086102033660046112ab565b6105f8565b60405161018d91906114c9565b610208610679565b610208610718565b6101e6610233366004611376565b6107bb565b610240610919565b60405161018d91906114d2565b61019e6109a7565b610208610263366004611376565b610a2f565b610180610ab2565b61020861027e366004611376565b610ac1565b610208610af4565b610208610b4b565b610208610b51565b61019e6102a93660046112c3565b610b57565b610240610ba3565b610240610bfe565b6102d16102cc366004611376565b610c59565b60405161018d9291906114a1565b61019e6102ed3660046112ab565b611035565b61019e6103003660046112ab565b61106f565b61019e6103133660046112c3565b6110a9565b61019e61032636600461125d565b6110f1565b6006546001600160a01b031681565b600080600061034a600954610431565b5060085550505050565b80516103679060079060208401906111ab565b507f79e6e700d65183b2eea70aa0cc25aa0852c71dd6fc43912af9318814aa83737233600760405161039a9291906113fc565b60405180910390a150565b600154604051633df0777b60e01b81526000916001600160a01b031690633df0777b906103d890869086906004016115a0565b60206040518083038186803b1580156103f057600080fd5b505afa158015610404573d6000803e3d6000fd5b505050506040513d601f19601f82011682018060405250810190610428919061128b565b90505b92915050565b6001546040516311bbb87160e21b81526000918291829182916001600160a01b03909116906346eee1c49061046a9088906004016114c9565b60206040518083038186803b15801561048257600080fd5b505afa158015610496573d6000803e3d6000fd5b505050506040513d601f19601f820116820180604052508101906104ba919061135e565b6001546040516377fbb66360e01b81529192506000916001600160a01b03909116906377fbb663906104f69089906000198701906004016115a0565b60206040518083038186803b15801561050e57600080fd5b505afa158015610522573d6000803e3d6000fd5b505050506040513d601f19601f82011682018060405250810190610546919061135e565b6001546040516393fa491560e01b81529192506000916001600160a01b03909116906393fa49159061057e908a9086906004016115a0565b60206040518083038186803b15801561059657600080fd5b505afa1580156105aa573d6000803e3d6000fd5b505050506040513d601f19601f820116820180604052508101906105ce919061135e565b905080156105e55760019550935091506105f19050565b50600094508493509150505b9193909250565b6001546040516311bbb87160e21b81526000916001600160a01b0316906346eee1c4906106299085906004016114c9565b60206040518083038186803b15801561064157600080fd5b505afa158015610655573d6000803e3d6000fd5b505050506040513d601f19601f8201168201806040525081019061042b919061135e565b600080600080600080600c60009054906101000a90046001600160a01b03166001600160a01b031663feaf968c6040518163ffffffff1660e01b815260040160a06040518083038186803b1580156106d057600080fd5b505afa1580156106e4573d6000803e3d6000fd5b505050506040513d601f19601f820116820180604052508101906107089190611397565b5091985050505050505050505b90565b600080600080600080600a60009054906101000a90046001600160a01b03166001600160a01b031663feaf968c6040518163ffffffff1660e01b815260040160a06040518083038186803b15801561076f57600080fd5b505afa158015610783573d6000803e3d6000fd5b505050506040513d601f19601f820116820180604052508101906107a79190611397565b505060025490910297505050505050505090565b60008060008060006107cd8787610c59565b91509150816107e85750600093508392508291506109129050565b6001546040516377fbb66360e01b81526000916001600160a01b0316906377fbb6639061081b908b9086906004016115a0565b60206040518083038186803b15801561083357600080fd5b505afa158015610847573d6000803e3d6000fd5b505050506040513d601f19601f8201168201806040525081019061086b919061135e565b6001546040516393fa491560e01b81529192506001600160a01b0316906393fa49159061089e908b9085906004016115a0565b60206040518083038186803b1580156108b657600080fd5b505afa1580156108ca573d6000803e3d6000fd5b505050506040513d601f19601f820116820180604052508101906108ee919061135e565b9450841561090457600195509250610912915050565b506000945084935083925050505b9250925092565b6005805460408051602060026001851615610100026000190190941693909304601f8101849004840282018401909252818152929183018282801561099f5780601f106109745761010080835404028352916020019161099f565b820191906000526020600020905b81548152906001019060200180831161098257829003601f168201915b505050505081565b6109af6111a7565b6000546001600160a01b039081169116146109e55760405162461bcd60e51b81526004016109dc9061156b565b60405180910390fd5b600080546040516001600160a01b03909116907f8be0079c531659141344cd1fd0a4f28419497f9722a3daafe3b4186f6b6457e0908390a3600080546001600160a01b0319169055565b6001546040516377fbb66360e01b81526000916001600160a01b0316906377fbb66390610a6290869086906004016115a0565b60206040518083038186803b158015610a7a57600080fd5b505afa158015610a8e573d6000803e3d6000fd5b505050506040513d601f19601f82011682018060405250810190610428919061135e565b6000546001600160a01b031690565b6001546040516393fa491560e01b81526000916001600160a01b0316906393fa491590610a6290869086906004016115a0565b600080600080600080600b60009054906101000a90046001600160a01b03166001600160a01b031663feaf968c6040518163ffffffff1660e01b815260040160a06040518083038186803b1580156106d057600080fd5b60035481565b60025481565b610b5f6111a7565b6000546001600160a01b03908116911614610b8c5760405162461bcd60e51b81526004016109dc9061156b565b8051610b9f9060049060208401906111ab565b5050565b6004805460408051602060026001851615610100026000190190941693909304601f8101849004840282018401909252818152929183018282801561099f5780601f106109745761010080835404028352916020019161099f565b6007805460408051602060026001851615610100026000190190941693909304601f8101849004840282018401909252818152929183018282801561099f5780601f106109745761010080835404028352916020019161099f565b6001546040516311bbb87160e21b8152600091829182916001600160a01b0316906346eee1c490610c8e9088906004016114c9565b60206040518083038186803b158015610ca657600080fd5b505afa158015610cba573d6000803e3d6000fd5b505050506040513d601f19601f82011682018060405250810190610cde919061135e565b90508015611025576001546040516377fbb66360e01b8152600091829160001985019183916001600160a01b03909116906377fbb66390610d25908c9085906004016115a0565b60206040518083038186803b158015610d3d57600080fd5b505afa158015610d51573d6000803e3d6000fd5b505050506040513d601f19601f82011682018060405250810190610d75919061135e565b9050878110610d9057506000955085945061102e9350505050565b6001546040516377fbb66360e01b81526001600160a01b03909116906377fbb66390610dc2908c9086906004016115a0565b60206040518083038186803b158015610dda57600080fd5b505afa158015610dee573d6000803e3d6000fd5b505050506040513d601f19601f82011682018060405250810190610e12919061135e565b905087811015610e2c575060019550935061102e92505050565b600180546040516377fbb66360e01b8152600286860304860190920195506001600160a01b0316906377fbb66390610e6a908c9088906004016115a0565b60206040518083038186803b158015610e8257600080fd5b505afa158015610e96573d6000803e3d6000fd5b505050506040513d601f19601f82011682018060405250810190610eba919061135e565b905087811015610f7357600180546040516377fbb66360e01b81526000926001600160a01b03909216916377fbb66391610efc918e91908a01906004016115a0565b60206040518083038186803b158015610f1457600080fd5b505afa158015610f28573d6000803e3d6000fd5b505050506040513d601f19601f82011682018060405250810190610f4c919061135e565b9050888110610f67576001859750975050505050505061102e565b84600101935050611020565b6001546040516377fbb66360e01b81526000916001600160a01b0316906377fbb66390610faa908d906000198a01906004016115a0565b60206040518083038186803b158015610fc257600080fd5b505afa158015610fd6573d6000803e3d6000fd5b505050506040513d601f19601f82011682018060405250810190610ffa919061135e565b9050888110156110185760018086039750975050505050505061102e565b600185039250505b610e2c565b50600091508190505b9250929050565b61103d6111a7565b6000546001600160a01b0390811691161461106a5760405162461bcd60e51b81526004016109dc9061156b565b600355565b6110776111a7565b6000546001600160a01b039081169116146110a45760405162461bcd60e51b81526004016109dc9061156b565b600255565b6110b16111a7565b6000546001600160a01b039081169116146110de5760405162461bcd60e51b81526004016109dc9061156b565b8051610b9f9060059060208401906111ab565b6110f96111a7565b6000546001600160a01b039081169116146111265760405162461bcd60e51b81526004016109dc9061156b565b6001600160a01b03811661114c5760405162461bcd60e51b81526004016109dc90611525565b600080546040516001600160a01b03808516939216917f8be0079c531659141344cd1fd0a4f28419497f9722a3daafe3b4186f6b6457e091a3600080546001600160a01b0319166001600160a01b0392909216919091179055565b3390565b828054600181600116156101000203166002900490600052602060002090601f016020900481019282601f106111ec57805160ff1916838001178555611219565b82800160010185558215611219579182015b828111156112195782518255916020019190600101906111fe565b50611225929150611229565b5090565b61071591905b80821115611225576000815560010161122f565b805169ffffffffffffffffffff8116811461042b57600080fd5b60006020828403121561126e578081fd5b81356001600160a01b0381168114611284578182fd5b9392505050565b60006020828403121561129c578081fd5b81518015158114611284578182fd5b6000602082840312156112bc578081fd5b5035919050565b6000602082840312156112d4578081fd5b813567ffffffffffffffff808211156112eb578283fd5b81840185601f8201126112fc578384fd5b803592508183111561130c578384fd5b604051601f8401601f19168101602001838111828210171561132c578586fd5b604052838152818401602001871015611343578485fd5b6113548460208301602085016115ba565b9695505050505050565b60006020828403121561136f578081fd5b5051919050565b60008060408385031215611388578081fd5b50508035926020909101359150565b600080600080600060a086880312156113ae578081fd5b6113b88787611243565b94506020860151935060408601519250606086015191506113dc8760808801611243565b90509295509295909350565b6001600160a01b0391909116815260200190565b60006040820160018060a01b03851683526020604081850152828554600180821660008114611432576001811461145057611488565b60028304607f16865260ff1983166060890152608088019350611488565b600283048087526114608a6115ae565b885b8281101561147e5781548b820160600152908401908701611462565b8a01606001955050505b509198975050505050505050565b901515815260200190565b9115158252602082015260400190565b92151583526020830191909152604082015260600190565b90815260200190565b6000602080835283518082850152825b818110156114fe578581018301518582016040015282016114e2565b8181111561150f5783604083870101525b50601f01601f1916929092016040019392505050565b60208082526026908201527f4f776e61626c653a206e6577206f776e657220697320746865207a65726f206160408201526564647265737360d01b606082015260800190565b6020808252818101527f4f776e61626c653a2063616c6c6572206973206e6f7420746865206f776e6572604082015260600190565b918252602082015260400190565b60009081526020902090565b8281833750600091015256fea26469706673582212204de9724e3a4d2df6cb3ebd52d7929a807964fd57793e646afb818b57b2930b9264736f6c63430006070033","abi":[{"inputs":[{"internalType":"int256","name":"_amount","type":"int256"},{"internalType":"int256","name":"_maxResolutionTime","type":"int256"},{"internalType":"string","name":"_supportedTokens","type":"string"},{"internalType":"string","name":"_purpose","type":"string"},{"internalType":"address payable","name":"_tellorAddress","type":"address"}],"stateMutability":"nonpayable","type":"constructor"},{"anonymous":false,"inputs":[{"indexed":true,"internalType":"address","name":"previousOwner","type":"address"},{"indexed":true,"internalType":"address","name":"newOwner","type":"address"}],"name":"OwnershipTransferred","type":"event"},{"anonymous":false,"inputs":[{"indexed":false,"internalType":"address","name":"sender","type":"address"},{"indexed":false,"internalType":"string","name":"selectedToken","type":"string"}],"name":"PaymentActivated","type":"event"},{"inputs":[{"internalType":"string","name":"_selectedToken","type":"string"}],"name":"activate","outputs":[],"stateMutability":"nonpayable","type":"function"},{"inputs":[],"name":"amount","outputs":[{"internalType":"int256","name":"","type":"int256"}],"stateMutability":"view","type":"function"},{"inputs":[{"internalType":"uint256","name":"_requestId","type":"uint256"}],"name":"getCurrentValue","outputs":[{"internalType":"bool","name":"ifRetrieve","type":"bool"},{"internalType":"uint256","name":"value","type":"uint256"},{"internalType":"uint256","name":"_timestampRetrieved","type":"uint256"}],"stateMutability":"view","type":"function"},{"inputs":[{"internalType":"uint256","name":"_requestId","type":"uint256"},{"internalType":"uint256","name":"_timestamp","type":"uint256"}],"name":"getDataBefore","outputs":[{"internalType":"bool","name":"_ifRetrieve","type":"bool"},{"internalType":"uint256","name":"_value","type":"uint256"},{"internalType":"uint256","name":"_timestampRetrieved","type":"uint256"}],"stateMutability":"view","type":"function"},{"inputs":[{"internalType":"uint256","name":"_requestId","type":"uint256"},{"internalType":"uint256","name":"_timestamp","type":"uint256"}],"name":"getIndexForDataBefore","outputs":[{"internalType":"bool","name":"found","type":"bool"},{"internalType":"uint256","name":"index","type":"uint256"}],"stateMutability":"view","type":"function"},{"inputs":[{"internalType":"uint256","name":"_requestId","type":"uint256"}],"name":"getNewValueCountbyRequestId","outputs":[{"internalType":"uint256","name":"","type":"uint256"}],"stateMutability":"view","type":"function"},{"inputs":[{"internalType":"uint256","name":"_requestId","type":"uint256"},{"internalType":"uint256","name":"_index","type":"uint256"}],"name":"getTimestampbyRequestIDandIndex","outputs":[{"internalType":"uint256","name":"","type":"uint256"}],"stateMutability":"view","type":"function"},{"inputs":[{"internalType":"uint256","name":"_requestId","type":"uint256"},{"internalType":"uint256","name":"_timestamp","type":"uint256"}],"name":"isInDispute","outputs":[{"internalType":"bool","name":"","type":"bool"}],"stateMutability":"view","type":"function"},{"inputs":[],"name":"linkToEth","outputs":[{"internalType":"int256","name":"","type":"int256"}],"stateMutability":"view","type":"function"},{"inputs":[],"name":"maxResolutionTime","outputs":[{"internalType":"int256","name":"","type":"int256"}],"stateMutability":"view","type":"function"},{"inputs":[],"name":"owner","outputs":[{"internalType":"address","name":"","type":"address"}],"stateMutability":"view","type":"function"},{"inputs":[],"name":"payer","outputs":[{"internalType":"address","name":"","type":"address"}],"stateMutability":"view","type":"function"},{"inputs":[],"name":"purpose","outputs":[{"internalType":"string","name":"","type":"string"}],"stateMutability":"view","type":"function"},{"inputs":[],"name":"renounceOwnership","outputs":[],"stateMutability":"nonpayable","type":"function"},{"inputs":[{"internalType":"uint256","name":"_requestId","type":"uint256"},{"internalType":"uint256","name":"_timestamp","type":"uint256"}],"name":"retrieveData","outputs":[{"internalType":"uint256","name":"","type":"uint256"}],"stateMutability":"view","type":"function"},{"inputs":[],"name":"selectedToken","outputs":[{"internalType":"string","name":"","type":"string"}],"stateMutability":"view","type":"function"},{"inputs":[{"internalType":"int256","name":"_amount","type":"int256"}],"name":"setAmount","outputs":[],"stateMutability":"nonpayable","type":"function"},{"inputs":[],"name":"setBtcPrice","outputs":[],"stateMutability":"nonpayable","type":"function"},{"inputs":[{"internalType":"int256","name":"_maxResolutionTime","type":"int256"}],"name":"setMaxResolutionTime","outputs":[],"stateMutability":"nonpayable","type":"function"},{"inputs":[{"internalType":"string","name":"_purpose","type":"string"}],"name":"setPurpose","outputs":[],"stateMutability":"nonpayable","type":"function"},{"inputs":[{"internalType":"string","name":"_supportedTokens","type":"string"}],"name":"setSupportedTokens","outputs":[],"stateMutability":"nonpayable","type":"function"},{"inputs":[],"name":"supportedTokens","outputs":[{"internalType":"string","name":"","type":"string"}],"stateMutability":"view","type":"function"},{"inputs":[{"internalType":"address","name":"newOwner","type":"address"}],"name":"transferOwnership","outputs":[],"stateMutability":"nonpayable","type":"function"},{"inputs":[],"name":"uniToEth","outputs":[{"internalType":"int256","name":"","type":"int256"}],"stateMutability":"view","type":"function"},{"inputs":[],"name":"usdPrice","outputs":[{"internalType":"int256","name":"","type":"int256"}],"stateMutability":"view","type":"function"}]}